:0400000007EF00F016
:0A0008006D8287ED0BF030EF0BF076
:10060000003F065B4F666D7D077F6F777C395E79B3
:100610007100010E5B6E000E5C6E20EE01F06B50FF
:10062000D9266C50DA22DECF5EF0DDCF5FF05EC0FF
:10063000D9FF5FC0DAFF02D828EF03F00500FA6E99
:10064000DE50FD6EDE50FE6EF850FF6EFA50120066
:100650001BC04DF04E6A000E506E0A0E4F6E7CECC1
:1006600008F0300E4D245B6E000E4E205C6E20EEC6
:1006700001F06B50D9266C50DA2210EE02F0DE50F9
:10068000E126DD50E22202D850EF03F00500FA6EB9
:10069000E650FD6EE650FE6EF850FF6EFA50120006
:1006A000060E5B6E000E5C6E20EE01F06B50D926DC
:1006B0006C50DA22DECF5EF0DDCF5FF05EC0D9FF96
:1006C0005FC0DAFF02D86FEF03F00500FA6EDE506C
:1006D000FD6EDE50FE6EF850FF6EFA5012001BC029
:1006E00055F0566A000E586E0A0E576EDEEC08F092
:1006F000300E55245B6E000E56205C6E20EE01F02D
:100700006B50D9266C50DA2210EE02F0DE50E12652
:10071000DD50E22202D897EF03F00500FA6EE650B2
:10072000FD6EE650FE6EF850FF6EFA501200060E97
:100730005B6E000E5C6E20EE01F06B50D9266C50A3
:10074000DA22DECF5EF0DDCF5FF05EC0D9FF5FC0A2
:10075000DAFF02D8B6EF03F00500FA6EDE50FD6E48
:10076000DE50FE6EF850FF6EFA5012003A0E5B6ECD
:10077000000E5C6E20EE01F06B50D9266C50DA2230
:1007800010EE02F0DE50E126DD50E22202D8D3EF77
:1007900003F00500FA6EE650FD6EE650FE6EF8506E
:1007A000FF6EFA501200060E5B6E000E5C6E20EEBD
:1007B00001F06B50D9266C50DA22DECF5EF0DDCF2F
:1007C0005FF05EC0D9FF5FC0DAFF02D8F2EF03F03E
:1007D0000500FA6EDE50FD6EDE50FE6EF850FF6EC4
:1007E000FA5012001DC04DF04E6A000E506E0A0EF7
:1007F0004F6E7CEC08F0300E4D245B6E000E4E20E8
:100800005C6E20EE01F06B50D9266C50DA2210EEAF
:1008100002F0DE50E126DD50E22202D81AEF04F0A9
:100820000500FA6EE650FD6EE650FE6EF850FF6E63
:10083000FA501200060E5B6E000E5C6E20EE01F0A8
:100840006B50D9266C50DA22DECF5EF0DDCF5FF040
:100850005EC0D9FF5FC0DAFF02D839EF04F00500AF
:10086000FA6EDE50FD6EDE50FE6EF850FF6EFA50EE
:1008700012001DC055F0566A000E586E0A0E576ED3
:10088000DEEC08F0300E55245B6E000E56205C6ED8
:1008900020EE01F06B50D9266C50DA2210EE02F0F7
:1008A000DE50E126DD50E22202D861EF04F00500BF
:1008B000FA6EE650FD6EE650FE6EF850FF6EFA508E
:1008C0001200060E5B6E000E5C6E20EE01F06B50A7
:1008D000D9266C50DA22DECF5EF0DDCF5FF05EC04D
:1008E000D9FF5FC0DAFF02D880EF04F00500FA6E8E
:1008F000DE50FD6EDE50FE6EF850FF6EFA501200B4
:100900003A0E5B6E000E5C6E20EE01F06B50D92645
:100910006C50DA2210EE02F0DE50E126DD50E222C9
:1009200002D89DEF04F00500FA6EE650FD6EE65029
:10093000FE6EF850FF6EFA501200060E5B6E000E4F
:100940005C6E20EE01F06B50D9266C50DA22DECFBF
:100950005EF0DDCF5FF05EC0D9FF5FC0DAFF02D886
:10096000BCEF04F00500FA6EDE50FD6EDE50FE6E48
:10097000F850FF6EFA5012001FC04DF04E6A000E84
:10098000506E0A0E4F6E7CEC08F0300E4D245B6EFC
:10099000000E4E205C6E20EE01F06B50D9266C509C
:1009A000DA2210EE02F0DE50E126DD50E22202D81B
:1009B000E4EF04F00500FA6EE650FD6EE650FE6EC0
:1009C000F850FF6EFA501200060E5B6E000E5C6E61
:1009D00020EE01F06B50D9266C50DA22DECF5EF0AB
:1009E000DDCF5FF05EC0D9FF5FC0DAFF02D803EF52
:1009F00005F00500FA6EDE50FD6EDE50FE6EF8501A
:100A0000FF6EFA5012001FC055F0566A000E586E65
:100A10000A0E576EDEEC08F0300E55245B6E000EA9
:100A200056205C6E20EE01F06B50D9266C50DA2215
:100A300010EE02F0DE50E126DD50E22202D82BEF6C
:100A400005F00500FA6EE650FD6EE650FE6EF850B9
:100A5000FF6EFA501200060E5B6E000E5C6E20EE0A
:100A600001F06B50D9266C50DA22DECF5EF0DDCF7C
:100A70005FF05EC0D9FF5FC0DAFF02D84AEF05F031
:100A80000500FA6EDE50FD6EDE50FE6EF850FF6E11
:100A9000FA501200020E12004EBE5AEF05F04E50F0
:100AA00007E1080E4D5CD8B058EF05F05AEF05F09D
:100AB00084EF05F04F505010D8B461EF05F063EFAC
:100AC00005F073EF05F04DC051F0010E526E512A42
:100AD0006CEF05F0D8905236512E6AEF05F0525067
:100AE000921272EF06F04DC051F0010E526E512A73
:100AF0007CEF05F0D8905236512E7AEF05F0525027
:100B0000FF0A921672EF06F04EBE92EF05F04E50BD
:100B100007E1100E4D5CD8B090EF05F092EF05F0B4
:100B2000C0EF05F04F505010D8B499EF05F09BEF8F
:100B300005F0ADEF05F04DC051F0F80E5126010E55
:100B4000526E512AA6EF05F0D8905236512EA4EFDE
:100B500005F05250931272EF06F04DC051F0F80EAE
:100B60005126010E526E512AB8EF05F0D890523638
:100B7000512EB6EF05F05250FF0A931672EF06F0B1
:100B80004EBECEEF05F04E5007E1180E4D5CD8B0CA
:100B9000CCEF05F0CEEF05F0FCEF05F04F50501014
:100BA000D8B4D5EF05F0D7EF05F0E9EF05F04DC06B
:100BB00051F0F00E5126010E526E512AE2EF05F06F
:100BC000D8905236512EE0EF05F05250941272EF49
:100BD00006F04DC051F0F00E5126010E526E512A12
:100BE000F4EF05F0D8905236512EF2EF05F0525046
:100BF000FF0A941672EF06F04EBE0AEF06F04E5052
:100C000007E1200E4D5CD8B008EF06F00AEF06F0C1
:100C100038EF06F04F505010D8B411EF06F013EF34
:100C200006F025EF06F04DC051F0E80E5126010EFA
:100C3000526E512A1EEF06F0D8905236512E1CEFFC
:100C400006F05250951272EF06F04DC051F0E80ECA
:100C50005126010E526E512A30EF06F0D8905236CE
:100C6000512E2EEF06F05250FF0A951672EF06F045
:100C70004EBE46EF06F04E5007E1280E4D5CD8B050
:100C800044EF06F046EF06F072EF06F04F505010BA
:100C9000D8B44DEF06F04FEF06F061EF06F04DC00F
:100CA00051F0E00E5126010E526E512A5AEF06F015
:100CB000D8905236512E58EF06F05250961272EFDD
:100CC00006F04DC051F0E00E5126010E526E512A31
:100CD0006CEF06F0D8905236512E6AEF06F0525063
:100CE000FF0A961612004EBE81EF06F04E5007E145
:100CF000080E4D5CD8B07FEF06F081EF06F0ABEF49
:100D000006F04F505010D8B488EF06F08AEF06F086
:100D10009AEF06F04DC051F0010E526E512A93EF3A
:100D200006F0D8905236512E91EF06F052508012B4
:100D300099EF07F04DC051F0010E526E512AA3EF0A
:100D400006F0D8905236512EA1EF06F05250FF0A0D
:100D5000801699EF07F04EBEB9EF06F04E5007E14E
:100D6000100E4D5CD8B0B7EF06F0B9EF06F0E7EF24
:100D700006F0F80E4D26FF0E4E224F505010D8B4FC
:100D8000C4EF06F0C6EF06F0D6EF06F04DC051F006
:100D9000010E526E512ACFEF06F0D8905236512EE6
:100DA000CDEF06F05250811299EF07F04DC051F08F
:100DB000010E526E512ADFEF06F0D8905236512EB6
:100DC000DDEF06F05250FF0A811699EF07F04EBE94
:100DD000F5EF06F04E5007E1180E4D5CD8B0F3EF7A
:100DE00006F0F5EF06F023EF07F0F00E4D26FF0EAC
:100DF0004E224F505010D8B400EF07F002EF07F02A
:100E000012EF07F04DC051F0010E526E512A0BEF58
:100E100007F0D8905236512E09EF07F05250821247
:100E200099EF07F04DC051F0010E526E512A1BEFA1
:100E300007F0D8905236512E19EF07F05250FF0AA2
:100E4000821699EF07F04EBE31EF07F04E5007E1E2
:100E5000200E4D5CD8B02FEF07F031EF07F05FEFB9
:100E600007F0E80E4D26FF0E4E224F505010D8B41A
:100E70003CEF07F03EEF07F04EEF07F04DC051F0AA
:100E8000010E526E512A47EF07F0D8905236512E7C
:100E900045EF07F05250831299EF07F04DC051F023
:100EA000010E526E512A57EF07F0D8905236512E4C
:100EB00055EF07F05250FF0A831699EF07F04EBE28
:100EC0006DEF07F04E5007E1280E4D5CD8B06BEF88
:100ED00007F06DEF07F099EF07F0E00E4D26FF0EDB
:100EE0004E224F505010D8B478EF07F07AEF07F049
:100EF0008AEF07F04DC051F0010E526E512A83EF78
:100F000007F0D8905236512E81EF07F052508412DC
:100F100099EF07F04DC051F0010E526E512A93EF38
:100F200007F0D8905236512E91EF07F05250FF0A39
:100F3000841612002A502B18D8B4A1EF07F0A3EFA3
:100F400007F09AEF07F02BC082F02BC083F0E5EF9B
:100F500007F08251020D010EF324D96E000EF42029
:100F6000DA6E10EE04F0DE50E126DD50E22283510D
:100F7000020D010EF324D96E000EF420DA6E00EE9D
:100F800004F0DE50E926DD50EA22E650EE5CEE5039
:100F9000800A646EE650800A6458D8B0D2EF07F039
:100FA000D4EF07F0D6EF07F083C082F0010E83255F
:100FB000556E566A000E5622000E586E0A0E576E77
:100FC000DEEC08F055500001836F2A5000018319B0
:100FD000D8A4EDEF07F0EFEF07F0A9EF07F082518B
:100FE000020D010EF324D96E000EF420DA6EDECF6E
:100FF00080F0DDCF81F02B50020D010EF324D96E6D
:10100000000EF420DA6E8251020D010EF324E16E1F
:10101000000EF420E26EDECFE6FFDDCFE5FF2B50C1
:10102000020D010EF324D96E000EF420DA6E80C09A
:10103000DEFF81C0DDFF2B50020D010EF324D96EBF
:10104000000EF420DA6E10EE04F0DE50E126DD50E2
:10105000E222010EE3BE38EF08F0010EE35006E194
:10106000E604D8B036EF08F038EF08F01BEF08F0D0
:101070002B50020D010EF324D96E000EF420DA6E0F
:10108000DECF60F0DDCF61F060C0D9FF61C0DAFF74
:1010900002D855EF08F00500FA6EDE50FD6EDE5006
:1010A000FE6EF850FF6EFA501200020AD8A45BEFF1
:1010B00008F05DEF08F06BEF08F02B50020D010E09
:1010C000F324D96E000EF420DA6EDECF5BF0DDCFB4
:1010D0005CF08EEC09F0010E2B24556E566A000E62
:1010E0005622000E586E0A0E576EDEEC08F0555070
:1010F0002B6E9AEF07F01200000E526E50BE85EF75
:1011000008F083EF08F08BEF08F04F6C501ED8B05A
:10111000502A010E526E4EBE92EF08F090EF08F08A
:1011200098EF08F04D6C4E1ED8B04E2A010E521AA0
:10113000000E546E000E536E4F505010D8B4A3EFF3
:1011400008F0A5EF08F0CDEF08F0010E516EADEFFD
:1011500008F0D8904F365036512A50AEB2EF08F012
:10116000B4EF08F0A9EF08F0D890533654364F503A
:101170004D5C50504E58D8A0C0EF08F0C2EF08F0B8
:10118000C7EF08F04F504D5E50504E5A5380D890E4
:1011900050324F32512EB4EF08F05250D8B4D3EF42
:1011A00008F0D5EF08F0D9EF08F0536C541ED8B012
:1011B000542A53C04DF054C04EF01200000E5A6E27
:1011C00056BEE7EF08F0E5EF08F0EDEF08F0556CDC
:1011D000561ED8B0562A010E5A6E58BEF4EF08F0CB
:1011E000F2EF08F0F8EF08F0576C581ED8B0582A04
:1011F00057505810D8B4FFEF08F001EF09F025EF71
:1012000009F0010E596E09EF09F0D890573658369B
:10121000592A58AE0EEF09F010EF09F005EF09F06A
:101220005750555C58505658D8A019EF09F01BEF8D
:1012300009F01FEF09F05750555E5850565AD89094
:1012400058325732592E10EF09F05A50D8B42BEFBC
:1012500009F02DEF09F031EF09F0556C561ED8B0AA
:10126000562A55C055F056C056F01200000E436E77
:101270003FBE3FEF09F03DEF09F045EF09F03E6C4E
:101280003F1ED8B03F2A010E436E41BE4CEF09F01D
:101290004AEF09F050EF09F0406C411ED8B0412AE6
:1012A00040504110D8B457EF09F059EF09F07DEFE5
:1012B00009F0010E426E61EF09F0D89040364136D8
:1012C000422A41AE66EF09F068EF09F05DEF09F0E0
:1012D00040503E5C41503F58D8A071EF09F073EF89
:1012E00009F077EF09F040503E5E41503F5AD890E8
:1012F00041324032422E68EF09F04350D8B483EFB8
:1013000009F085EF09F089EF09F03E6C3F1ED8B077
:101310003F2A3EC03EF03FC03FF012002B505D6EB2
:101320005E6A010E2A24556E566A000E5622000E81
:10133000586E0A0E576EDEEC08F05D50551809E144
:101340005E505618D8B4A7EF09F0A9EF09F0DFEF07
:1013500009F02A50020D010EF324D96E000EF4207C
:10136000DA6E5BC0DEFF5CC0DDFF20EE02F05B509A
:10137000D9265C50DA22DECF5DF0DDCF5EF02A5058
:10138000020D010EF324D96E000EF420DA6E10EE79
:1013900004F0DE50E126DD50E2225D50E6265E508C
:1013A000E522010E2A24556E566A000E5622000EC2
:1013B000586E0A0E576EDEEC08F055502A6E120079
:1013C0002BC046F020EF0AF04650020D010EF32428
:1013D000D96E000EF420DA6E10EE04F0DE50E12635
:1013E000DD50E222010EE3AE01EF0AF0D10EE65C21
:1013F0008A0EE658D8A0FFEF09F001EF0AF012EFCD
:101400000AF04650020D010EF324D96E000EF420AE
:10141000DA6E10EE04F0DE50E126DD50E222E60640
:10142000000EE55A010E46243E6E3F6A000E3F2232
:10143000000E416E0A0E406E36EC09F03E50466ECC
:101440002A504618D8A427EF0AF029EF0AF0E4EF53
:1014500009F0120020EE65F010EE84F0050EDBCFEF
:10146000E3FFE806FCE220EE90F010EE8AF0050EB5
:10147000DBCFE3FFE806FCE2000E956EFAEC0BF022
:10148000B0EC0BF04DC06BF04EC06CF0000E556E22
:10149000000E566E20EE03F06B50D9266C50DA2207
:1014A00002D85DEF0AF00500FA6EDE50FD6EDE50E8
:1014B000FE6EF850FF6EFA501200EBEC0BF0840E4B
:1014C0005B6E000E5C6E8EEC09F08A0E5B6E000E99
:1014D0005C6E8EEC09F0D09EF28AF28EF28C9AEC61
:1014E00007F007EF00F0214A222A21C055F022C060
:1014F00056F0000E586E3C0E576EDEEC08F055C0EC
:101500001FF056C020F0000E506E3C0E4F6E21C0F2
:101510004DF022C04EF07CEC08F04DC055F04EC0AE
:1015200056F0000E586E3C0E576EDEEC08F055C0BB
:101530001DF056C01EF00E0E506E100E4F6E21C0E4
:101540004DF022C04EF07CEC08F04DC055F04EC07E
:1015500056F0000E586E180E576EDEEC08F055C0AF
:101560001BF056C01CF0020E1200546E83CF53F0D5
:10157000000E956E000E4E6E220E4D6E000E506ED9
:10158000000E4F6E73EC06F054C083FF000E4E6EDB
:10159000210E4D6E000E506E010E4F6E73EC06F074
:1015A000000E4E6E210E4D6E000E506E000E4F6EF0
:1015B00073EC06F053C083FF020E5418D8B4E3EF67
:1015C0000AF0E5EF0AF0EDEF0AF05404D8A4EBEFCF
:1015D0000AF0EDEF0AF0F1EF0AF0C5EC0BF0F3EFD3
:1015E0000AF0D3EC0BF01200000E4E6E220E4D6E80
:1015F000000E506E000E4F6E4CEC05F0000E4E6E5D
:10160000210E4D6E000E506E000E4F6E4CEC05F02C
:10161000000E956EC5EC0BF0C5EC0BF0C5EC0BF0B5
:10162000C5EC0BF0C5EC0BF0380EB5EC0AF0C5ECD0
:101630000BF0C5EC0BF0380EB5EC0AF0C5EC0BF076
:10164000380EB5EC0AF0380EB5EC0AF0060EB5EC23
:101650000AF00C0EB5EC0AF0010EB5EC0AF012001F
:10166000020EF66E180EF76E000EF86E00EE90F099
:1016700010EE06F00900F5CFEEFFE550E150FAE17B
:10168000FC0EF66E170EF76E000EF86E00EE65F0AB
:1016900010EE06F00900F5CFEEFFE550E150FAE15B
:1016A00000EE01F03D0EEE6AE806FDE16D906D92F0
:1016B000000EF86E00012AEF0AF0536E83CF54F04B
:1016C000000E956E000E4E6E220E4D6E000E506E88
:1016D000010E4F6E73EC06F053C083FF000E4E6E8A
:1016E000210E4D6E000E506E010E4F6E73EC06F023
:1016F000000E4E6E210E4D6E000E506E000E4F6E9F
:1017000073EC06F054C083FFD3EC0BF0120006001C
:10171000E1CF47F0E2CF48F0D9CF49F0DACF4AF035
:10172000F3CF4BF0F4CF4CF0F2A499EF0BF09BEF1A
:101730000BF0A2EF0BF0B10ED76EDF0ED66EE0EC21
:1017400009F0F2944CC0F4FF4BC0F3FF4AC0DAFF3B
:1017500049C0D9FF48C0E2FF47C0E1FF6D921100C8
:10176000EA0E2F6E170E306ECA0E366E170E376EDB
:10177000BE0E386E170E396E360E2D6E000E2E6EA2
:101780002C0E4D6E000E4E6E1200000E4E6ED3ECFF
:101790000BF04E2A310E4E64D0EF0BF0D2EF0BF06F
:1017A000C7EF0BF01200000E4D6E4D2A180E4D645F
:1017B000DCEF0BF0DEEF0BF0D5EF0BF012005BC0AF
:1017C0005DF05D505DEC0BF012005BC05DF05D50B4
:1017D000B5EC0AF01200000E2B6E000E2A6E1200FD
:1017E000000E956E55C031F01200F4EC0AF055C0B1
:1017F0002CF01200080ED56ED58E1200E6140A00E9
:10180000000012060A0000005BC083FF1200831E66
:021810001200C4
:020000040020DA
:08000000FFFFFFFFFFFFFFFF00
:020000040030CA
:0E000000FF021100FF8380FF0FC00FE00F40D2
:00000001FF
