:0400000007EF00F016
:0A0008005F82CEED09F04AEF09F027
:10060000003F065B4F666D7D077F6F777C395E79B3
:1006100071003FBE17EF03F03F5007E1080E3E5C4C
:10062000D8B015EF03F017EF03F041EF03F040509F
:100630004110D8B41EEF03F020EF03F030EF03F0C9
:100640003EC042F0010E436E422A29EF03F0D890DB
:100650004336422E27EF03F0435092122FEF04F05F
:100660003EC042F0010E436E422A39EF03F0D890AB
:100670004336422E37EF03F04350FF0A92162FEF16
:1006800004F03FBE4FEF03F03F5007E1100E3E5C19
:10069000D8B04DEF03F04FEF03F07DEF03F0405083
:1006A0004110D8B456EF03F058EF03F06AEF03F0AF
:1006B0003EC042F0F80E4226010E436E422A63EF1E
:1006C00003F0D8904336422E61EF03F0435093126B
:1006D0002FEF04F03EC042F0F80E4226010E436EAA
:1006E000422A75EF03F0D8904336422E73EF03F0A1
:1006F0004350FF0A93162FEF04F03FBE8BEF03F039
:100700003F5007E1180E3E5CD8B089EF03F08BEF45
:1007100003F0B9EF03F040504110D8B492EF03F06A
:1007200094EF03F0A6EF03F03EC042F0F00E422635
:10073000010E436E422A9FEF03F0D8904336422EBB
:100740009DEF03F0435094122FEF04F03EC042F0AF
:10075000F00E4226010E436E422AB1EF03F0D8900C
:100760004336422EAFEF03F04350FF0A94162FEFAB
:1007700004F03FBEC7EF03F03F5007E1200E3E5CA0
:10078000D8B0C5EF03F0C7EF03F0F5EF03F040502A
:100790004110D8B4CEEF03F0D0EF03F0E2EF03F056
:1007A0003EC042F0E80E4226010E436E422ADBEFC5
:1007B00003F0D8904336422ED9EF03F04350951200
:1007C0002FEF04F03EC042F0E80E4226010E436EC9
:1007D000422AEDEF03F0D8904336422EEBEF03F0C0
:1007E0004350FF0A95162FEF04F03FBE03EF04F0CD
:1007F0003F5007E1280E3E5CD8B001EF04F003EF54
:1008000004F02FEF04F040504110D8B40AEF04F088
:100810000CEF04F01EEF04F03EC042F0E00E422662
:10082000010E436E422A17EF04F0D8904336422E51
:1008300015EF04F0435096122FEF04F03EC042F043
:10084000E00E4226010E436E422A29EF04F0D890B2
:100850004336422E27EF04F04350FF0A961612004B
:100860003FBE3EEF04F03F5007E1080E3E5CD8B0BB
:100870003CEF04F03EEF04F068EF04F0405041100C
:10088000D8B445EF04F047EF04F057EF04F03EC052
:1008900042F0010E436E422A50EF04F0D8904336E6
:1008A000422E4EEF04F04350801256EF05F03EC04A
:1008B00042F0010E436E422A60EF04F0D8904336B6
:1008C000422E5EEF04F04350FF0A801656EF05F00B
:1008D0003FBE76EF04F03F5007E1100E3E5CD8B00B
:1008E00074EF04F076EF04F0A4EF04F0F80E3E2667
:1008F000FF0E3F2240504110D8B481EF04F083EF47
:1009000004F093EF04F03EC042F0010E436E422A21
:100910008CEF04F0D8904336422E8AEF04F0435017
:10092000811256EF05F03EC042F0010E436E422A9E
:100930009CEF04F0D8904336422E9AEF04F04350D7
:10094000FF0A811656EF05F03FBEB2EF04F03F50AC
:1009500007E1180E3E5CD8B0B0EF04F0B2EF04F03F
:10096000E0EF04F0F00E3E26FF0E3F224050411013
:10097000D8B4BDEF04F0BFEF04F0CFEF04F03EC0F9
:1009800042F0010E436E422AC8EF04F0D89043367D
:10099000422EC6EF04F04350821256EF05F03EC0DF
:1009A00042F0010E436E422AD8EF04F0D89043364D
:1009B000422ED6EF04F04350FF0A821656EF05F0A0
:1009C0003FBEEEEF04F03F5007E1200E3E5CD8B092
:1009D000ECEF04F0EEEF04F01CEF05F0E80E3E261D
:1009E000FF0E3F2240504110D8B4F9EF04F0FBEF66
:1009F00004F00BEF05F03EC042F0010E436E422AB8
:100A000004EF05F0D8904336422E02EF05F0435034
:100A1000831256EF05F03EC042F0010E436E422AAB
:100A200014EF05F0D8904336422E12EF05F04350F4
:100A3000FF0A831656EF05F03FBE2AEF05F03F5040
:100A400007E1280E3E5CD8B028EF05F02AEF05F04C
:100A500056EF05F0E00E3E26FF0E3F2240504110BB
:100A6000D8B435EF05F037EF05F047EF05F03EC09D
:100A700042F0010E436E422A40EF05F0D890433613
:100A8000422E3EEF05F04350841256EF05F03EC073
:100A900042F0010E436E422A50EF05F0D8904336E3
:100AA000422E4EEF05F04350FF0A841612002450E8
:100AB0002518D8B45EEF05F060EF05F057EF05F0AC
:100AC00025C057F025C058F0A1EF05F05750020D92
:100AD000010EF324D96E000EF420DA6E10EE04F04D
:100AE000DE50E126DD50E2225850020D010EF324C3
:100AF000D96E000EF420DA6E00EE04F0DE50E92626
:100B0000DD50EA22E650EE5CEE50800A546EE6506C
:100B1000800A5458D8B08FEF05F091EF05F093EFAD
:100B200005F058C057F0010E5824466E476A000E73
:100B30004722000E496E0A0E486EFEEC07F0465042
:100B4000586E24505818D8A4A8EF05F0AAEF05F065
:100B500066EF05F05750020D010EF324D96E000E1A
:100B6000F420DA6EDECF55F0DDCF56F02550020DC1
:100B7000010EF324D96E000EF420DA6E5750020DE8
:100B8000010EF324E16E000EF420E26EDECFE6FFEC
:100B9000DDCFE5FF2550020D010EF324D96E000EC6
:100BA000F420DA6E55C0DEFF56C0DDFF2550020D81
:100BB000010EF324D96E000EF420DA6E10EE04F06C
:100BC000DE50E126DD50E222010EE3BEF3EF05F038
:100BD000010EE35006E1E604D8B0F1EF05F0F3EFC3
:100BE00005F0D6EF05F02550020D010EF324D96E65
:100BF000000EF420DA6EDECF50F0DDCF51F050C0A1
:100C0000D9FF51C0DAFF02D810EF06F00500FA6EE6
:100C1000DE50FD6EDE50FE6EF850FF6EFA50120090
:100C2000020AD8A416EF06F018EF06F026EF06F039
:100C30002550020D010EF324D96E000EF420DA6E59
:100C4000DECF4CF0DDCF4DF0AEEC08F0010E2524E8
:100C5000466E476A000E4722000E496E0A0E486E25
:100C6000FEEC07F04650256E57EF05F01200000E1F
:100C7000956E000E3F6E020E3E6E000E416E000E2F
:100C8000406E30EC04F0000E3F6E030E3E6E000E20
:100C9000416E000E406E30EC04F0000E3F6E040E0C
:100CA0003E6E000E416E000E406E30EC04F0000E01
:100CB0003F6E050E3E6E000E416E000E406E30EC33
:100CC00004F0000E836EC1EF06F0010E2024F66ED4
:100CD000F76A060EF7220800F5CF83FF000E3F6E7D
:100CE000020E3E6E000E416E010E406E30EC04F0BE
:100CF000010E216ED4EF06F0010E1F24F66EF76A86
:100D0000060EF7220800F5CF83FF000E3F6E030E9C
:100D10003E6E000E416E010E406E30EC04F0020E8D
:100D2000216ED4EF06F0010E1E24F66EF76A060E51
:100D3000F7220800F5CF83FF000E3F6E040E3E6ED3
:100D4000000E416E010E406E30EC04F0030E216E79
:100D5000D4EF06F0010E1D24F66EF76A060EF72298
:100D60000800F5CF83FF000E3F6E050E3E6E000EAD
:100D7000416E010E406E30EC04F0000E216ED4EF97
:100D800006F02150000AD8B465EF06F0010AD8B485
:100D90007CEF06F0030AD8B493EF06F0010AD8B44A
:100DA000AAEF06F0BDEF06F012001B4A1C2A1BC07A
:100DB00046F01CC047F0000E496E0A0E486EFEEC6D
:100DC00007F046C04CF047C04DF0030E3E6E4C504D
:100DD00077EC09F0000E416E0A0E406E1BC03EF02B
:100DE0001CC03FF043EC07F03EC046F03FC047F068
:100DF000000E496E0A0E486EFEEC07F046C04CF03D
:100E000047C04DF0020E3E6E4C5077EC09F0000EDC
:100E1000416E640E406E1BC03EF01CC03FF043ECC0
:100E200007F03EC046F03FC047F0000E496E0A0E84
:100E3000486EFEEC07F046C04CF047C04DF0010E86
:100E40003E6E4C5077EC09F0030E416EE80E406E9A
:100E50001BC03EF01CC03FF043EC07F03EC046F024
:100E60003FC047F0000E496E0A0E486EFEEC07F0D8
:100E700046C04CF047C04DF0000E3E6E4C5077EC33
:100E800009F0020E1200000E436E41BE4CEF07F057
:100E90004AEF07F052EF07F0406C411ED8B0412AEC
:100EA000010E436E3FBE59EF07F057EF07F05FEFBB
:100EB00007F03E6C3F1ED8B03F2A010E431A000EC9
:100EC000456E000E446E40504110D8B46AEF07F0F2
:100ED0006CEF07F094EF07F0010E426E74EF07F02D
:100EE000D89040364136422A41AE79EF07F07BEF89
:100EF00007F070EF07F0D8904436453640503E5C1E
:100F000041503F58D8A087EF07F089EF07F08EEFE8
:100F100007F040503E5E41503F5A4480D8904132E5
:100F20004032422E7BEF07F04350D8B49AEF07F0DF
:100F30009CEF07F0A0EF07F0446C451ED8B0452A9F
:100F400044C03EF045C03FF0120020EE59F010EED4
:100F500080F0050EDBCFE3FFE806FCE220EEB0F008
:100F600010EE86F0050EDBCFE3FFE806FCE220EE94
:100F7000AAF010EE8CF0050EDBCFE3FFE806FCE2F2
:100F800020EEA4F010EE92F0050EDBCFE3FFE806B2
:100F9000FCE220EE9EF010EE98F0050EDBCFE3FFB2
:100FA000E806FCE208EC0AF0A3EC09F003EC0AF016
:100FB000800E4C6E000E4D6EAEEC08F08C0E4C6E3A
:100FC000000E4D6EAEEC08F0860E4C6E000E4D6EAF
:100FD000AEEC08F0920E4C6E000E4D6EAEEC08F0CA
:100FE000980E4C6E000E4D6EAEEC08F0D09EF28A5C
:100FF000F28EF28C57EC05F007EF00F0000E4B6E0E
:1010000047BE07EF08F005EF08F00DEF08F0466C5B
:10101000471ED8B0472A010E4B6E49BE14EF08F0A8
:1010200012EF08F018EF08F0486C491ED8B0492AB2
:1010300048504910D8B41FEF08F021EF08F045EFF1
:1010400008F0010E4A6E29EF08F0D890483649366C
:101050004A2A49AE2EEF08F030EF08F025EF08F0ED
:101060004850465C49504758D8A039EF08F03BEF4C
:1010700008F03FEF08F04850465E4950475AD89074
:10108000493248324A2E30EF08F04B50D8B44BEF7B
:1010900008F04DEF08F051EF08F0466C471ED8B04D
:1010A000472A46C046F047C047F01200000E346E93
:1010B00030BE5FEF08F05DEF08F065EF08F02F6CD1
:1010C000301ED8B0302A010E346E32BE6CEF08F0FC
:1010D0006AEF08F070EF08F0316C321ED8B0322A97
:1010E00031503210D8B477EF08F079EF08F09DEF67
:1010F00008F0010E336E81EF08F0D89031363236A9
:10110000332A32AE86EF08F088EF08F07DEF08F062
:1011100031502F5C32503058D8A091EF08F093EF47
:1011200008F097EF08F031502F5E3250305AD890C7
:1011300032323132332E88EF08F03450D8B4A3EF76
:1011400008F0A5EF08F0A9EF08F02F6C301ED8B01A
:10115000302A2FC02FF030C030F0120025504E6ED4
:101160004F6A010E2424466E476A000E4722000E85
:10117000496E0A0E486EFEEC07F04E50461809E123
:101180004F504718D8B4C7EF08F0C9EF08F0FFEF89
:1011900008F02450020D010EF324D96E000EF42045
:1011A000DA6E4CC0DEFF4DC0DDFF20EE02F04C5089
:1011B000D9264D50DA22DECF4EF0DDCF4FF024504D
:1011C000020D010EF324D96E000EF420DA6E10EE3B
:1011D00004F0DE50E126DD50E2224E50E6264F506C
:1011E000E522010E2424466E476A000E4722000EB7
:1011F000496E0A0E486EFEEC07F04650246E12004F
:1012000025C037F040EF09F03750020D010EF324EE
:10121000D96E000EF420DA6E10EE04F0DE50E126F6
:10122000DD50E222010EE3AE21EF09F0D10EE65CC3
:101230008A0EE658D8A01FEF09F021EF09F032EF2F
:1012400009F03750020D010EF324D96E000EF42080
:10125000DA6E10EE04F0DE50E126DD50E222E60602
:10126000000EE55A010E37242F6E306A000E302230
:10127000000E326E0A0E316E56EC08F02F50376EAB
:1012800024503718D8A447EF09F049EF09F004EFCC
:1012900009F01200EE0EF66E130EF76E000EF86EE9
:1012A00000EE9EF010EE18F00900F5CFEEFFE550CD
:1012B000E150FAE1380EF66E140EF76E000EF86E7D
:1012C00000EE59F010EE06F00900F5CFEEFFE55004
:1012D000E150FAE100EE01F02E0EEE6AE806FDE1C3
:1012E0005F905F92000EF86E0001A5EF07F03F6E71
:1012F0003E50D8A47EEF09F080EF09F082EF09F0AC
:101300003FC020F03E04D8A488EF09F08AEF09F02E
:101310008CEF09F03FC01FF0020E3E18D8A493EFE7
:1013200009F095EF09F097EF09F03FC01EF0030EAA
:101330003E18D8A49EEF09F0A0EF09F0A2EF09F043
:101340003FC01DF01200000E3F6E020E3E6E000EFA
:10135000416E000E406E09EC03F0000E3F6E030E6E
:101360003E6E000E416E000E406E09EC03F0000E62
:101370003F6E040E3E6E000E416E000E406E09EC94
:1013800003F0000E3F6E050E3E6E000E416E000E25
:10139000406E09EC03F0000E956E12000600E1CFDE
:1013A00038F0E2CF39F0D9CF3AF0DACF3BF0F3CFD3
:1013B0003CF0F4CF3DF0F2A4E0EF09F0E2EF09F0E9
:1013C000E9EF09F0B10ED76EDF0ED66E00EC09F032
:1013D000F2943DC0F4FF3CC0F3FF3BC0DAFF3AC0DB
:1013E000D9FF39C0E2FF38C0E1FF5F921100AA0DBA
:1013F000640000003014010000001814C800000050
:10140000201464000000000E256E000E246E1200F1
:10141000080ED56ED58E1200F00E831A020E120041
:101420000F0E831A020E1200000E956E000E1200AF
:0E14300037EC06F0020E120028140000000037
:020000040020DA
:08000000FFFFFFFFFFFFFFFF00
:020000040030CA
:0E000000FF021100FF8380FF0FC00FE00F40D2
:00000001FF
