:0400000007EF00F016
:0A000800618207ED0AF083EF09F0B2
:10060000003F065B4F666D7D077F6F777C395E79B3
:10061000710024502518D8B410EF03F012EF03F046
:1006200009EF03F025C057F025C058F0AAEF03F0FA
:100630005750020D010EF324D96E000EF420DA6E2D
:1006400010EE04F0DE50E126DD50E2225850020D9B
:10065000010EF324D96E000EF420DA6E00EE04F0E1
:10066000DE50E926DD50EA22E650EE1807E1E650BA
:10067000EE18D8A43EEF03F040EF03F06FEF03F065
:100680005850020D010EF324D96E000EF420DA6EDC
:1006900010EE06F0DE50E126DD50E2225750020D4A
:1006A000010EF324D96E000EF420DA6E00EE06F08F
:1006B000DE50E926DD50EA22E650EE5CEE50800A7C
:1006C000546EE650800A5458D8B069EF03F06BEFCF
:1006D00003F06FEF03F058C057F09CEF03F0575052
:1006E000020D010EF324D96E000EF420DA6E10EE26
:1006F00004F0DE50E126DD50E2225850020D010EDA
:10070000F324D96E000EF420DA6E00EE04F0DE5011
:10071000E926DD50EA22E650EE5CEE50800A546E87
:10072000E650800A5458D8B098EF03F09AEF03F0DF
:100730009CEF03F06BEF03F0010E5824466E476AFE
:10074000000E4722000E496E0A0E486EFCEC07F0C0
:100750004650586E24505818D8A4B1EF03F0B3EFA8
:1007600003F018EF03F05750020D010EF324D96E79
:10077000000EF420DA6EDECF55F0DDCF56F02550B6
:10078000020D010EF324D96E000EF420DA6E5750DC
:10079000020D010EF324E16E000EF420E26EDECFB6
:1007A000E6FFDDCFE5FF2550020D010EF324D96EE3
:1007B000000EF420DA6E55C0DEFF56C0DDFF255076
:1007C000020D010EF324D96E000EF420DA6E10EE45
:1007D00004F0DE50E126DD50E222010EE3BEFCEF24
:1007E00003F0010EE35006E1E604D8B0FAEF03F09F
:1007F000FCEF03F0DFEF03F02550020D010EF324B0
:10080000D96E000EF420DA6EDECF50F0DDCF51F05D
:1008100050C0D9FF51C0DAFF02D819EF04F005002B
:10082000FA6EDE50FD6EDE50FE6EF850FF6EFA502E
:100830001200020AD8A41FEF04F021EF04F02FEFFA
:1008400004F02550020D010EF324D96E000EF420A1
:10085000DA6EDECF4CF0DDCF4DF0ACEC08F0010EDF
:100860002524466E476A000E4722000E496E0A0E86
:10087000486EFCEC07F04650256E09EF03F01200BD
:100880003FBE4EEF04F03F5007E1080E3E5CD8B08B
:100890004CEF04F04EEF04F078EF04F040504110BC
:1008A000D8B455EF04F057EF04F067EF04F03EC002
:1008B00042F0010E436E422A60EF04F0D8904336B6
:1008C000422E5EEF04F04350921266EF05F03EC0F8
:1008D00042F0010E436E422A70EF04F0D890433686
:1008E000422E6EEF04F04350FF0A921666EF05F0B9
:1008F0003FBE86EF04F03F5007E1100E3E5CD8B0DB
:1009000084EF04F086EF04F0B4EF04F0405041109F
:10091000D8B48DEF04F08FEF04F0A1EF04F03EC0E7
:1009200042F0F80E4226010E436E422A9AEF04F07E
:10093000D8904336422E98EF04F04350931266EF5E
:1009400005F03EC042F0F80E4226010E436E422AE8
:10095000ACEF04F0D8904336422EAAEF04F0435097
:10096000FF0A931666EF05F03FBEC2EF04F03F505A
:1009700007E1180E3E5CD8B0C0EF04F0C2EF04F0FF
:10098000F0EF04F040504110D8B4C9EF04F0CBEFC1
:1009900004F0DDEF04F03EC042F0F00E4226010EFE
:1009A000436E422AD6EF04F0D8904336422ED4EF5D
:1009B00004F04350941266EF05F03EC042F0F00E92
:1009C0004226010E436E422AE8EF04F0D8904336E7
:1009D000422EE6EF04F04350FF0A941666EF05F04E
:1009E0003FBEFEEF04F03F5007E1200E3E5CD8B062
:1009F000FCEF04F0FEEF04F02CEF05F04050411046
:100A0000D8B405EF05F007EF05F019EF05F03EC08B
:100A100042F0E80E4226010E436E422A12EF05F024
:100A2000D8904336422E10EF05F04350951266EFF2
:100A300005F03EC042F0E80E4226010E436E422A07
:100A400024EF05F0D8904336422E22EF05F04350B4
:100A5000FF0A951666EF05F03FBE3AEF05F03F50EE
:100A600007E1280E3E5CD8B038EF05F03AEF05F00C
:100A700066EF05F040504110D8B441EF05F043EF68
:100A800005F055EF05F03EC042F0E00E4226010EA3
:100A9000436E422A4EEF05F0D8904336422E4CEF7B
:100AA00005F04350961266EF05F03EC042F0E00EAE
:100AB0004226010E436E422A60EF05F0D89043367D
:100AC000422E5EEF05F04350FF0A961612003FBE1D
:100AD00075EF05F03F5007E1080E3E5CD8B073EFAC
:100AE00005F075EF05F09FEF05F040504110D8B4C8
:100AF0007CEF05F07EEF05F08EEF05F03EC042F092
:100B0000010E436E422A87EF05F0D8904336422EFD
:100B100085EF05F0435080128DEF06F03EC042F0A5
:100B2000010E436E422A97EF05F0D8904336422ECD
:100B300095EF05F04350FF0A80168DEF06F03FBE9B
:100B4000ADEF05F03F5007E1100E3E5CD8B0ABEFC3
:100B500005F0ADEF05F0DBEF05F0F80E3E26FF0ED9
:100B60003F2240504110D8B4B8EF05F0BAEF05F07D
:100B7000CAEF05F03EC042F0010E436E422AC3EFB9
:100B800005F0D8904336422EC1EF05F04350811254
:100B90008DEF06F03EC042F0010E436E422AD3EFC5
:100BA00005F0D8904336422ED1EF05F04350FF0AAE
:100BB00081168DEF06F03FBEE9EF05F03F5007E1EB
:100BC000180E3E5CD8B0E7EF05F0E9EF05F017EF3F
:100BD00006F0F00E3E26FF0E3F2240504110D8B4E2
:100BE000F4EF05F0F6EF05F006EF06F03EC042F038
:100BF000010E436E422AFFEF05F0D8904336422E95
:100C0000FDEF05F0435082128DEF06F03EC042F03A
:100C1000010E436E422A0FEF06F0D8904336422E63
:100C20000DEF06F04350FF0A82168DEF06F03FBE2F
:100C300025EF06F03F5007E1200E3E5CD8B023EFD1
:100C400006F025EF06F053EF06F0E80E3E26FF0E05
:100C50003F2240504110D8B430EF06F032EF06F09A
:100C600042EF06F03EC042F0010E436E422A3BEFD7
:100C700006F0D8904336422E39EF06F043508312E7
:100C80008DEF06F03EC042F0010E436E422A4BEF5C
:100C900006F0D8904336422E49EF06F04350FF0A43
:100CA00083168DEF06F03FBE61EF06F03F5007E17F
:100CB000280E3E5CD8B05FEF06F061EF06F08DEFD6
:100CC00006F0E00E3E26FF0E3F2240504110D8B401
:100CD0006CEF06F06EEF06F07EEF06F03EC042F0DD
:100CE000010E436E422A77EF06F0D8904336422E2B
:100CF00075EF06F0435084128DEF06F03EC042F0CF
:100D0000010E436E422A87EF06F0D8904336422EFA
:100D100085EF06F04350FF0A84161200000E956E10
:100D2000000E3F6E020E3E6E000E416E000E406ED3
:100D300067EC05F0000E3F6E030E3E6E000E416E36
:100D4000000E406E67EC05F0000E3F6E040E3E6E26
:100D5000000E416E000E406E67EC05F0000E3F6E17
:100D6000050E3E6E000E416E000E406E67EC05F003
:100D7000000E836E18EF07F0010E2024F66EF76A5E
:100D8000060EF7220800F5CF83FF000E3F6E020E1D
:100D90003E6E000E416E010E406E67EC05F0010ED6
:100DA000216E2BEF07F0010E1F24F66EF76A060E78
:100DB000F7220800F5CF83FF000E3F6E030E3E6E54
:100DC000000E416E010E406E67EC05F0020E216EC2
:100DD0002BEF07F0010E1E24F66EF76A060EF722BF
:100DE0000800F5CF83FF000E3F6E040E3E6E000E2E
:100DF000416E010E406E67EC05F0030E216E2BEF85
:100E000007F0010E1D24F66EF76A060EF7220800A1
:100E1000F5CF83FF000E3F6E050E3E6E000E416E55
:100E2000010E406E67EC05F0000E216E2BEF07F00F
:100E30002150000AD8B4BCEF06F0010AD8B4D3EFB1
:100E400006F0030AD8B4EAEF06F0010AD8B401EFBD
:100E500007F014EF07F012001B4A1C2A1BC046F0D3
:100E60001CC047F0000E496E0A0E486EFCEC07F0FD
:100E700046C04CF047C04DF0030E3E6E4C50B0ECF7
:100E800009F0000E416E0A0E406E1BC03EF01CC001
:100E90003FF09AEC07F03EC046F03FC047F0000E2E
:100EA000496E0A0E486EFCEC07F046C04CF047C095
:100EB0004DF0020E3E6E4C50B0EC09F0000E416E4B
:100EC000640E406E1BC03EF01CC03FF09AEC07F071
:100ED0003EC046F03FC047F0000E496E0A0E486E15
:100EE000FCEC07F046C04CF047C04DF0010E3E6EE2
:100EF0004C50B0EC09F0030E416EE80E406E1BC082
:100F00003EF01CC03FF09AEC07F03EC046F03FC0F8
:100F100047F0000E496E0A0E486EFCEC07F046C022
:100F20004CF047C04DF0000E3E6E4C50B0EC09F056
:100F3000020E1200000E436E41BEA3EF07F0A1EFB8
:100F400007F0A9EF07F0406C411ED8B0412A010E0E
:100F5000436E3FBEB0EF07F0AEEF07F0B6EF07F01D
:100F60003E6C3F1ED8B03F2A010E431A000E456E5C
:100F7000000E446E40504110D8B4C1EF07F0C3EFEB
:100F800007F0EBEF07F0010E426ECBEF07F0D890C1
:100F900040364136422A41AED0EF07F0D2EF07F09B
:100FA000C7EF07F0D8904436453640503E5C41507C
:100FB0003F58D8A0DEEF07F0E0EF07F0E5EF07F0CD
:100FC00040503E5E41503F5A4480D89041324032BA
:100FD000422ED2EF07F04350D8B4F1EF07F0F3EF11
:100FE00007F0F7EF07F0446C451ED8B0452A44C01F
:100FF0003EF045C03FF01200000E4B6E47BE05EFBD
:1010000008F003EF08F00BEF08F0466C471ED8B06D
:10101000472A010E4B6E49BE12EF08F010EF08F0A0
:1010200016EF08F0486C491ED8B0492A48504910BC
:10103000D8B41DEF08F01FEF08F043EF08F0010EE1
:101040004A6E27EF08F0D890483649364A2A49AE0A
:101050002CEF08F02EEF08F023EF08F04850465C24
:1010600049504758D8A037EF08F039EF08F03DEF66
:1010700008F04850465E4950475AD89049324832A5
:101080004A2E2EEF08F04B50D8B449EF08F04BEF42
:1010900008F04FEF08F0466C471ED8B0472A46C00C
:1010A00046F047C047F01200000E346E30BE5DEFD0
:1010B00008F05BEF08F063EF08F02F6C301ED8B03B
:1010C000302A010E346E32BE6AEF08F068EF08F085
:1010D0006EEF08F0316C321ED8B0322A3150321027
:1010E000D8B475EF08F077EF08F09BEF08F0010E29
:1010F000336E7FEF08F0D89031363236332A32AE75
:1011000084EF08F086EF08F07BEF08F031502F5C99
:1011100032503058D8A08FEF08F091EF08F095EFDB
:1011200008F031502F5E3250305AD890323231327E
:10113000332E86EF08F03450D8B4A1EF08F0A3EFB7
:1011400008F0A7EF08F02F6C301ED8B0302A2FC05F
:101150002FF030C030F0120025504E6E4F6A010E55
:101160002424466E476A000E4722000E496E0A0E7E
:10117000486EFCEC07F04E50461809E14F504718F6
:10118000D8B4C5EF08F0C7EF08F0FDEF08F0245021
:10119000020D010EF324D96E000EF420DA6E4CC05D
:1011A000DEFF4DC0DDFF20EE02F04C50D9264D5041
:1011B000DA22DECF4EF0DDCF4FF02450020D010ECB
:1011C000F324D96E000EF420DA6E10EE04F0DE5037
:1011D000E126DD50E2224E50E6264F50E522010E78
:1011E0002424466E476A000E4722000E496E0A0EFE
:1011F000486EFCEC07F04650246E120025C037F014
:101200003EEF09F03750020D010EF324D96E000EA7
:10121000F420DA6E10EE04F0DE50E126DD50E2221A
:10122000010EE3AE1FEF09F0D10EE65C8A0EE65820
:10123000D8A01DEF09F01FEF09F030EF09F037508B
:10124000020D010EF324D96E000EF420DA6E10EEBA
:1012500004F0DE50E126DD50E222E606000EE55AFB
:10126000010E37242F6E306A000E3022000E326ECF
:101270000A0E316E54EC08F02F50376E2450371898
:10128000D8A445EF09F047EF09F002EF09F012008A
:1012900020EE59F010EE80F0070EDBCFE3FFE806FA
:1012A000FCE220EEA0F010EE88F0070EDBCFE3FFAB
:1012B000E806FCE220EE98F010EE90F0070EDBCF8F
:1012C000E3FFE806FCE241EC0AF0DCEC09F038EC64
:1012D0000AF0800E4C6E000E4D6EACEC08F0880EDD
:1012E0004C6E000E4D6EACEC08F0900E4C6E000E85
:1012F0004D6EACEC08F0D09EF28AF28EF28C09ECC6
:1013000003F007EF00F0600EF66E140EF76E000E9D
:10131000F86E00EE98F010EE10F00900F5CFEEFF39
:10132000E550E150FAE17A0EF66E140EF76E000EFB
:10133000F86E00EE59F010EE08F00900F5CFEEFF60
:10134000E550E150FAE100EE01F02E0EEE6AE806FB
:10135000FDE161906192000EF86E000148EF09F026
:101360003F6E3E50D8A4B7EF09F0B9EF09F0BBEFDC
:1013700009F03FC020F03E04D8A4C1EF09F0C3EF4C
:1013800009F0C5EF09F03FC01FF0020E3E18D8A4C7
:10139000CCEF09F0CEEF09F0D0EF09F03FC01EF01E
:1013A000030E3E18D8A4D7EF09F0D9EF09F0DBEF10
:1013B00009F03FC01DF01200000E3F6E020E3E6E9F
:1013C000000E416E000E406E40EC04F0000E3F6EC9
:1013D000030E3E6E000E416E000E406E40EC04F0B7
:1013E000000E3F6E040E3E6E000E416E000E406E0B
:1013F00040EC04F0000E3F6E050E3E6E000E416E96
:10140000000E406E40EC04F0000E956E12000600D7
:10141000E1CF38F0E2CF39F0D9CF3AF0DACF3BF074
:10142000F3CF3CF0F4CF3DF0F2A419EF0AF01BEF3C
:101430000AF022EF0AF0B10ED76EDF0ED66EFEEC88
:1014400008F0F2943DC0F4FF3CC0F3FF3BC0DAFF6C
:101450003AC0D9FF39C0E2FF38C0E1FF6192110004
:10146000580E6400000005009214010000000A00FC
:10147000000E256E000E246E12008A14000000007B
:101480000F00080ED56ED58E1200000E956E000E60
:0A14900012008EEC06F0020E1200AE
:020000040020DA
:08000000FFFFFFFFFFFFFFFF00
:020000040030CA
:0E000000FF021100FF8380FF0FC00FE00F40D2
:00000001FF
