:0400000007EF00F016
:0A0008006182CCED0AF01EEF0AF051
:10060000003F065B4F666D7D077F6F777C395E79B3
:10061000710024502518D8B410EF03F012EF03F046
:1006200009EF03F025C057F025C058F0BCEF03F0E8
:100630005850020D010EF324D96E000EF420DA6E2C
:1006400010EE04F0DE50E126DD50E222010EE3BEA2
:1006500035EF03F0010EE35006E1E604D8B033EFC6
:1006600003F035EF03F081EF03F05750020D010E58
:10067000F324D96E000EF420DA6E10EE04F0DE5092
:10068000E126DD50E222010EE3BE52EF03F0010E3F
:10069000E35006E1E604D8B050EF03F052EF03F068
:1006A00081EF03F05850020D010EF324D96E000EB5
:1006B000F420DA6E10EE06F0DE50E126DD50E22284
:1006C0005750020D010EF324D96E000EF420DA6E9D
:1006D00000EE06F0DE50E926DD50EA22E650EE5C40
:1006E000EE50800A546EE650800A5458D8B07BEF22
:1006F00003F07DEF03F081EF03F058C057F0AEEF49
:1007000003F05750020D010EF324D96E000EF420B1
:10071000DA6E10EE04F0DE50E126DD50E222585091
:10072000020D010EF324D96E000EF420DA6E00EEF5
:1007300004F0DE50E926DD50EA22E650EE5CEE5091
:10074000800A546EE650800A5458D8B0AAEF03F0DD
:10075000ACEF03F0AEEF03F07DEF03F0010E582491
:10076000466E476A000E4722000E496E0A0E486E1A
:100770000EEC08F04650586E24505818D8A4C3EF19
:1007800003F0C5EF03F018EF03F05750020D010E10
:10079000F324D96E000EF420DA6EDECF55F0DDCFF3
:1007A00056F02550020D010EF324D96E000EF420F0
:1007B000DA6E5750020D010EF324E16E000EF420A4
:1007C000E26EDECFE6FFDDCFE5FF2550020D010E24
:1007D000F324D96E000EF420DA6E55C0DEFF56C049
:1007E000DDFF2550020D010EF324D96E000EF4201A
:1007F000DA6E10EE04F0DE50E126DD50E222010E4A
:10080000E3BE0EEF04F0010EE35006E1E604D8B0BB
:100810000CEF04F00EEF04F0F1EF03F02550020DA1
:10082000010EF324D96E000EF420DA6EDECF50F004
:10083000DDCF51F050C0D9FF51C0DAFF02D82BEF05
:1008400004F00500FA6EDE50FD6EDE50FE6EF850CC
:10085000FF6EFA501200020AD8A431EF04F033EF11
:1008600004F041EF04F02550020D010EF324D96E7F
:10087000000EF420DA6EDECF4CF0DDCF4DF0BEEC92
:1008800008F0010E2524466E476A000E4722000E2E
:10089000496E0A0E486E0EEC08F04650256E09EFC0
:1008A00003F012003FBE60EF04F03F5007E1080E76
:1008B0003E5CD8B05EEF04F060EF04F08AEF04F025
:1008C00040504110D8B467EF04F069EF04F079EFBD
:1008D00004F03EC042F0010E436E422A72EF04F073
:1008E000D8904336422E70EF04F04350921278EFC6
:1008F00005F03EC042F0010E436E422A82EF04F042
:10090000D8904336422E80EF04F04350FF0A9216EF
:1009100078EF05F03FBE98EF04F03F5007E1100E6E
:100920003E5CD8B096EF04F098EF04F0C6EF04F008
:1009300040504110D8B49FEF04F0A1EF04F0B3EFA2
:1009400004F03EC042F0F80E4226010E436E422AE9
:10095000ACEF04F0D8904336422EAAEF04F0435097
:10096000931278EF05F03EC042F0F80E4226010ED9
:10097000436E422ABEEF04F0D8904336422EBCEFBD
:1009800004F04350FF0A931678EF05F03FBED4EF12
:1009900004F03F5007E1180E3E5CD8B0D2EF04F0EF
:1009A000D4EF04F002EF05F040504110D8B4DBEF73
:1009B00004F0DDEF04F0EFEF04F03EC042F0F00E83
:1009C0004226010E436E422AE8EF04F0D8904336E7
:1009D000422EE6EF04F04350941278EF05F03EC04B
:1009E00042F0F00E4226010E436E422AFAEF04F066
:1009F000D8904336422EF8EF04F04350FF0A941685
:100A000078EF05F03FBE10EF05F03F5007E1200EF4
:100A10003E5CD8B00EEF05F010EF05F03EEF05F0AC
:100A200040504110D8B417EF05F019EF05F02BEF47
:100A300005F03EC042F0E80E4226010E436E422A07
:100A400024EF05F0D8904336422E22EF05F04350B4
:100A5000951278EF05F03EC042F0E80E4226010EF6
:100A6000436E422A36EF05F0D8904336422E34EFDB
:100A700005F04350FF0A951678EF05F03FBE4CEFA6
:100A800005F03F5007E1280E3E5CD8B04AEF05F074
:100A90004CEF05F078EF05F040504110D8B453EF1B
:100AA00005F055EF05F067EF05F03EC042F0E00EAF
:100AB0004226010E436E422A60EF05F0D89043367D
:100AC000422E5EEF05F04350961278EF05F03EC0DF
:100AD00042F0E00E4226010E436E422A72EF05F00C
:100AE000D8904336422E70EF05F04350FF0A961619
:100AF00012003FBE87EF05F03F5007E1080E3E5C55
:100B0000D8B085EF05F087EF05F0B1EF05F0405064
:100B10004110D8B48EEF05F090EF05F0A0EF05F08E
:100B20003EC042F0010E436E422A99EF05F0D89084
:100B30004336422E97EF05F0435080129FEF06F0A8
:100B40003EC042F0010E436E422AA9EF05F0D89054
:100B50004336422EA7EF05F04350FF0A80169FEF61
:100B600006F03FBEBFEF05F03F5007E1100E3E5CC0
:100B7000D8B0BDEF05F0BFEF05F0EDEF05F0F80ED2
:100B80003E26FF0E3F2240504110D8B4CAEF05F078
:100B9000CCEF05F0DCEF05F03EC042F0010E436EF5
:100BA000422AD5EF05F0D8904336422ED3EF05F018
:100BB000435081129FEF06F03EC042F0010E436E9B
:100BC000422AE5EF05F0D8904336422EE3EF05F0D8
:100BD0004350FF0A81169FEF06F03FBEFBEF05F082
:100BE0003F5007E1180E3E5CD8B0F9EF05F0FBEF7F
:100BF00005F029EF06F0F00E3E26FF0E3F22405092
:100C00004110D8B406EF06F008EF06F018EF06F032
:100C10003EC042F0010E436E422A11EF06F0D8901A
:100C20004336422E0FEF06F0435082129FEF06F03C
:100C30003EC042F0010E436E422A21EF06F0D890EA
:100C40004336422E1FEF06F04350FF0A82169FEFF5
:100C500006F03FBE37EF06F03F5007E1200E3E5C46
:100C6000D8B035EF06F037EF06F065EF06F0E80E86
:100C70003E26FF0E3F2240504110D8B442EF06F00E
:100C800044EF06F054EF06F03EC042F0010E436E12
:100C9000422A4DEF06F0D8904336422E4BEF06F035
:100CA000435083129FEF06F03EC042F0010E436EA8
:100CB000422A5DEF06F0D8904336422E5BEF06F0F5
:100CC0004350FF0A83169FEF06F03FBE73EF06F016
:100CD0003F5007E1280E3E5CD8B071EF06F073EF8D
:100CE00006F09FEF06F0E00E3E26FF0E3F2240503A
:100CF0004110D8B47EEF06F080EF06F090EF06F0DA
:100D00003EC042F0010E436E422A89EF06F0D890B1
:100D10004336422E87EF06F0435084129FEF06F0D1
:100D20003EC042F0010E436E422A99EF06F0D89081
:100D30004336422E97EF06F04350FF0A8416120006
:100D4000000E956E000E3F6E020E3E6E000E416E5E
:100D5000000E406E79EC05F0000E3F6E030E3E6E05
:100D6000000E416E000E406E79EC05F0000E3F6EF5
:100D7000040E3E6E000E416E000E406E79EC05F0E2
:100D8000000E3F6E050E3E6E000E416E000E406E70
:100D900079EC05F0000E836E2AEF07F0010E202497
:100DA000F66EF76A060EF7220800F5CF83FF000EF5
:100DB0003F6E020E3E6E000E416E010E406E79ECEB
:100DC00005F0010E216E3DEF07F0010E1F24F66EB7
:100DD000F76A060EF7220800F5CF83FF000E3F6E7C
:100DE000030E3E6E000E416E010E406E79EC05F072
:100DF000020E216E3DEF07F0010E1E24F66EF76A1B
:100E0000060EF7220800F5CF83FF000E3F6E040E9A
:100E10003E6E000E416E010E406E79EC05F0030E41
:100E2000216E3DEF07F0010E1D24F66EF76A060EE7
:100E3000F7220800F5CF83FF000E3F6E050E3E6ED1
:100E4000000E416E010E406E79EC05F0000E216E31
:100E50003DEF07F02150000AD8B4CEEF06F0010AAA
:100E6000D8B4E5EF06F0030AD8B4FCEF06F0010AA7
:100E7000D8B413EF07F026EF07F012001B4A1C2A24
:100E80001BC046F01CC047F0000E496E0A0E486EAB
:100E90000EEC08F046C04CF047C04DF0030E3E6E1D
:100EA0004C504BEC0AF0000E416E0A0E406E1BC017
:100EB0003EF01CC03FF0ACEC07F03EC046F03FC037
:100EC00047F0000E496E0A0E486E0EEC08F046C060
:100ED0004CF047C04DF0020E3E6E4C504BEC0AF009
:100EE000000E416E640E406E1BC03EF01CC03FF011
:100EF000ACEC07F03EC046F03FC047F0000E496E34
:100F00000A0E486E0EEC08F046C04CF047C04DF09B
:100F1000010E3E6E4C504BEC0AF0030E416EE80E93
:100F2000406E1BC03EF01CC03FF0ACEC07F03EC072
:100F300046F03FC047F0000E496E0A0E486E0EECB8
:100F400008F046C04CF047C04DF0000E3E6E4C50CD
:100F50004BEC0AF0020E1200000E436E41BEB5EFDC
:100F600007F0B3EF07F0BBEF07F0406C411ED8B0BD
:100F7000412A010E436E3FBEC2EF07F0C0EF07F0FB
:100F8000C8EF07F03E6C3F1ED8B03F2A010E431A4F
:100F9000000E456E000E446E40504110D8B4D3EFA1
:100FA00007F0D5EF07F0FDEF07F0010E426EDDEF21
:100FB00007F0D89040364136422A41AEE2EF07F0C2
:100FC000E4EF07F0D9EF07F0D890443645364050AB
:100FD0003E5C41503F58D8A0F0EF07F0F2EF07F029
:100FE000F7EF07F040503E5E41503F5A4480D890A2
:100FF00041324032422EE4EF07F04350D8B403EFC1
:1010000008F005EF08F009EF08F0446C451ED8B071
:10101000452A44C03EF045C03FF01200000E4B6E22
:1010200047BE17EF08F015EF08F01DEF08F0466C0B
:10103000471ED8B0472A010E4B6E49BE24EF08F078
:1010400022EF08F028EF08F0486C491ED8B0492A72
:1010500048504910D8B42FEF08F031EF08F055EFA1
:1010600008F0010E4A6E39EF08F0D890483649363C
:101070004A2A49AE3EEF08F040EF08F035EF08F09D
:101080004850465C49504758D8A049EF08F04BEF0C
:1010900008F04FEF08F04850465E4950475AD89044
:1010A000493248324A2E40EF08F04B50D8B45BEF3B
:1010B00008F05DEF08F061EF08F0466C471ED8B00D
:1010C000472A46C046F047C047F01200000E346E73
:1010D00030BE6FEF08F06DEF08F075EF08F02F6C81
:1010E000301ED8B0302A010E346E32BE7CEF08F0CC
:1010F0007AEF08F080EF08F0316C321ED8B0322A57
:1011000031503210D8B487EF08F089EF08F0ADEF16
:1011100008F0010E336E91EF08F0D8903136323678
:10112000332A32AE96EF08F098EF08F08DEF08F012
:1011300031502F5C32503058D8A0A1EF08F0A3EF07
:1011400008F0A7EF08F031502F5E3250305AD89097
:1011500032323132332E98EF08F03450D8B4B3EF36
:1011600008F0B5EF08F0B9EF08F02F6C301ED8B0DA
:10117000302A2FC02FF030C030F0120025504E6EB4
:101180004F6A010E2424466E476A000E4722000E65
:10119000496E0A0E486E0EEC08F04E50461809E1F2
:1011A0004F504718D8B4D7EF08F0D9EF08F00FEF39
:1011B00009F02450020D010EF324D96E000EF42024
:1011C000DA6E4CC0DEFF4DC0DDFF20EE02F04C5069
:1011D000D9264D50DA22DECF4EF0DDCF4FF024502D
:1011E000020D010EF324D96E000EF420DA6E10EE1B
:1011F00004F0DE50E126DD50E2224E50E6264F504C
:10120000E522010E2424466E476A000E4722000E96
:10121000496E0A0E486E0EEC08F04650246E12001D
:1012200025C037F050EF09F03750020D010EF324BE
:10123000D96E000EF420DA6E10EE04F0DE50E126D6
:10124000DD50E222010EE3AE31EF09F0D10EE65C93
:101250008A0EE658D8A02FEF09F031EF09F042EFDF
:1012600009F03750020D010EF324D96E000EF42060
:10127000DA6E10EE04F0DE50E126DD50E222E606E2
:10128000000EE55A010E37242F6E306A000E302210
:10129000000E326E0A0E316E66EC08F02F50376E7B
:1012A00024503718D8A457EF09F059EF09F014EF7C
:1012B00009F0120020EE59F010EE80F0070EDBCF9F
:1012C000E3FFE806FCE220EEA0F010EE88F0070E47
:1012D000DBCFE3FFE806FCE220EE98F010EE90F0A2
:1012E000070EDBCFE3FFE806FCE220EC0BF077EC27
:1012F0000AF017EC0BF0800E4C6E000E4D6EBEEC3B
:1013000008F0880E4C6E000E4D6EBEEC08F0900E8C
:101310004C6E000E4D6EBEEC08F0D09EF28AF28E3E
:10132000F28CE2EC09F0010EA3EC09F04F0EA2ECF6
:101330000AF0060EA3EC09F0690EA2EC0AF009EC23
:1013400003F007EF00F0456E83CF44F0000E956E7A
:10135000000E3F6E220E3E6E000E416E000E406E7D
:1013600079EC05F045C083FF000E3F6E210E3E6E06
:10137000000E416E010E406E79EC05F0000E3F6EDE
:10138000210E3E6E000E416E000E406E79EC05F0AF
:1013900044C083FF020E4518D8B4D1EF09F0D3EF53
:1013A00009F0DBEF09F04504D8A4D9EF09F0DBEF31
:1013B00009F0DFEF09F0F5EC0AF0E1EF09F003ECDA
:1013C0000BF01200000E3F6E220E3E6E000E416EBC
:1013D000000E406E52EC04F0000E3F6E210E3E6E89
:1013E000000E416E000E406E52EC04F0000E956E41
:1013F000F5EC0AF0F5EC0AF0F5EC0AF0F5EC0AF081
:10140000F5EC0AF0380EA3EC09F0F5EC0AF0F5EC77
:101410000AF0380EA3EC09F0F5EC0AF0380EA3EC54
:1014200009F0380EA3EC09F0060EA3EC09F00C0E3F
:10143000A3EC09F0010EA3EC09F012001E0EF66EEB
:10144000160EF76E000EF86E00EE98F010EE10F02B
:101450000900F5CFEEFFE550E150FAE1380EF66EE7
:10146000160EF76E000EF86E00EE59F010EE08F052
:101470000900F5CFEEFFE550E150FAE100EE01F092
:101480002E0EEE6AE806FDE161906192000EF86EA4
:1014900000015AEF09F03F6E3E50D8A452EF0AF017
:1014A00054EF0AF056EF0AF03FC020F03E04D8A4F3
:1014B0005CEF0AF05EEF0AF060EF0AF03FC01FF049
:1014C000020E3E18D8A467EF0AF069EF0AF06BEF3E
:1014D0000AF03FC01EF0030E3E18D8A472EF0AF0C7
:1014E00074EF0AF076EF0AF03FC01DF01200000E14
:1014F0003F6E020E3E6E000E416E000E406E52ECCC
:1015000004F0000E3F6E030E3E6E000E416E000EA4
:10151000406E52EC04F0000E3F6E040E3E6E000E64
:10152000416E000E406E52EC04F0000E3F6E050E50
:101530003E6E000E416E000E406E52EC04F0000E46
:10154000956E1200446E83CF45F0000E956E000E2E
:101550003F6E220E3E6E000E416E010E406E79EC23
:1015600005F044C083FF000E3F6E210E3E6E000E5C
:10157000416E010E406E79EC05F0000E3F6E210EBB
:101580003E6E000E416E000E406E79EC05F045C0D7
:1015900083FF03EC0BF012000600E1CF38F0E2CF3E
:1015A00039F0D9CF3AF0DACF3BF0F3CF3CF0F4CFBB
:1015B0003DF0F2A4DEEF0AF0E0EF0AF0E7EF0AF008
:1015C000F80ED76E2F0ED66E10EC09F0F2943DC0D7
:1015D000F4FF3CC0F3FF3BC0DAFF3AC0D9FF39C08B
:1015E000E2FF38C0E1FF61921100000E3F6E03EC94
:1015F0000BF03F2A310E3F6400EF0BF002EF0BF0CF
:10160000F7EF0AF01200000E3E6E3E2A180E3E64FE
:101610000CEF0BF00EEF0BF005EF0BF012007C0E51
:10162000E80300000A005016050000000500000E47
:10163000256E000E246E12004816000000000F00F8
:10164000080ED56ED58E1200000E956E000E12009B
:08165000A0EC06F0020E1200EE
:020000040020DA
:08000000FFFFFFFFFFFFFFFF00
:020000040030CA
:0E000000FF021100FF8380FF0FC00FE00F40D2
:00000001FF
