:0400000007EF00F016
:0A0008006182DBED09F057EF09F00B
:10060000003F065B4F666D7D077F6F777C395E79B3
:1006100071003FBE17EF03F03F5007E1080E3E5C4C
:10062000D8B015EF03F017EF03F041EF03F040509F
:100630004110D8B41EEF03F020EF03F030EF03F0C9
:100640003EC042F0010E436E422A29EF03F0D890DB
:100650004336422E27EF03F0435092122FEF04F05F
:100660003EC042F0010E436E422A39EF03F0D890AB
:100670004336422E37EF03F04350FF0A92162FEF16
:1006800004F03FBE4FEF03F03F5007E1100E3E5C19
:10069000D8B04DEF03F04FEF03F07DEF03F0405083
:1006A0004110D8B456EF03F058EF03F06AEF03F0AF
:1006B0003EC042F0F80E4226010E436E422A63EF1E
:1006C00003F0D8904336422E61EF03F0435093126B
:1006D0002FEF04F03EC042F0F80E4226010E436EAA
:1006E000422A75EF03F0D8904336422E73EF03F0A1
:1006F0004350FF0A93162FEF04F03FBE8BEF03F039
:100700003F5007E1180E3E5CD8B089EF03F08BEF45
:1007100003F0B9EF03F040504110D8B492EF03F06A
:1007200094EF03F0A6EF03F03EC042F0F00E422635
:10073000010E436E422A9FEF03F0D8904336422EBB
:100740009DEF03F0435094122FEF04F03EC042F0AF
:10075000F00E4226010E436E422AB1EF03F0D8900C
:100760004336422EAFEF03F04350FF0A94162FEFAB
:1007700004F03FBEC7EF03F03F5007E1200E3E5CA0
:10078000D8B0C5EF03F0C7EF03F0F5EF03F040502A
:100790004110D8B4CEEF03F0D0EF03F0E2EF03F056
:1007A0003EC042F0E80E4226010E436E422ADBEFC5
:1007B00003F0D8904336422ED9EF03F04350951200
:1007C0002FEF04F03EC042F0E80E4226010E436EC9
:1007D000422AEDEF03F0D8904336422EEBEF03F0C0
:1007E0004350FF0A95162FEF04F03FBE03EF04F0CD
:1007F0003F5007E1280E3E5CD8B001EF04F003EF54
:1008000004F02FEF04F040504110D8B40AEF04F088
:100810000CEF04F01EEF04F03EC042F0E00E422662
:10082000010E436E422A17EF04F0D8904336422E51
:1008300015EF04F0435096122FEF04F03EC042F043
:10084000E00E4226010E436E422A29EF04F0D890B2
:100850004336422E27EF04F04350FF0A961612004B
:100860003FBE3EEF04F03F5007E1080E3E5CD8B0BB
:100870003CEF04F03EEF04F068EF04F0405041100C
:10088000D8B445EF04F047EF04F057EF04F03EC052
:1008900042F0010E436E422A50EF04F0D8904336E6
:1008A000422E4EEF04F04350801256EF05F03EC04A
:1008B00042F0010E436E422A60EF04F0D8904336B6
:1008C000422E5EEF04F04350FF0A801656EF05F00B
:1008D0003FBE76EF04F03F5007E1100E3E5CD8B00B
:1008E00074EF04F076EF04F0A4EF04F0F80E3E2667
:1008F000FF0E3F2240504110D8B481EF04F083EF47
:1009000004F093EF04F03EC042F0010E436E422A21
:100910008CEF04F0D8904336422E8AEF04F0435017
:10092000811256EF05F03EC042F0010E436E422A9E
:100930009CEF04F0D8904336422E9AEF04F04350D7
:10094000FF0A811656EF05F03FBEB2EF04F03F50AC
:1009500007E1180E3E5CD8B0B0EF04F0B2EF04F03F
:10096000E0EF04F0F00E3E26FF0E3F224050411013
:10097000D8B4BDEF04F0BFEF04F0CFEF04F03EC0F9
:1009800042F0010E436E422AC8EF04F0D89043367D
:10099000422EC6EF04F04350821256EF05F03EC0DF
:1009A00042F0010E436E422AD8EF04F0D89043364D
:1009B000422ED6EF04F04350FF0A821656EF05F0A0
:1009C0003FBEEEEF04F03F5007E1200E3E5CD8B092
:1009D000ECEF04F0EEEF04F01CEF05F0E80E3E261D
:1009E000FF0E3F2240504110D8B4F9EF04F0FBEF66
:1009F00004F00BEF05F03EC042F0010E436E422AB8
:100A000004EF05F0D8904336422E02EF05F0435034
:100A1000831256EF05F03EC042F0010E436E422AAB
:100A200014EF05F0D8904336422E12EF05F04350F4
:100A3000FF0A831656EF05F03FBE2AEF05F03F5040
:100A400007E1280E3E5CD8B028EF05F02AEF05F04C
:100A500056EF05F0E00E3E26FF0E3F2240504110BB
:100A6000D8B435EF05F037EF05F047EF05F03EC09D
:100A700042F0010E436E422A40EF05F0D890433613
:100A8000422E3EEF05F04350841256EF05F03EC073
:100A900042F0010E436E422A50EF05F0D8904336E3
:100AA000422E4EEF05F04350FF0A841612002450E8
:100AB0002518D8B45EEF05F060EF05F057EF05F0AC
:100AC00025C057F025C058F0CCEF05F05850020D66
:100AD000010EF324D96E000EF420DA6E10EE06F04B
:100AE000DE50E126DD50E2225750020D010EF324C4
:100AF000D96E000EF420DA6E00EE06F0DE50E92624
:100B0000DD50EA22E650EE5CEE50800A546EE6506C
:100B1000800A5458D8B08FEF05F091EF05F0BEEF82
:100B200005F05750020D010EF324D96E000EF4208B
:100B3000DA6E10EE04F0DE50E126DD50E22258506D
:100B4000020D010EF324D96E000EF420DA6E00EED1
:100B500004F0DE50E926DD50EA22E650EE5CEE506D
:100B6000800A546EE650800A5458D8B0BAEF05F0A7
:100B7000BCEF05F0BEEF05F058C057F0010E582449
:100B8000466E476A000E4722000E496E0A0E486EF6
:100B9000D0EC07F04650586E24505818D8A4D3EF24
:100BA00005F0D5EF05F066EF05F05750020D010E88
:100BB000F324D96E000EF420DA6EDECF55F0DDCFCF
:100BC00056F02550020D010EF324D96E000EF420CC
:100BD000DA6E5750020D010EF324E16E000EF42080
:100BE000E26EDECFE6FFDDCFE5FF2550020D010E00
:100BF000F324D96E000EF420DA6E55C0DEFF56C025
:100C0000DDFF2550020D010EF324D96E000EF420F5
:100C1000DA6E10EE04F0DE50E126DD50E222010E25
:100C2000E3BE1EEF06F0010EE35006E1E604D8B085
:100C30001CEF06F01EEF06F001EF06F02550020D46
:100C4000010EF324D96E000EF420DA6EDECF50F0E0
:100C5000DDCF51F050C0D9FF51C0DAFF02D83BEFD1
:100C600006F00500FA6EDE50FD6EDE50FE6EF850A6
:100C7000FF6EFA501200020AD8A441EF06F043EFCB
:100C800006F051EF06F02550020D010EF324D96E47
:100C9000000EF420DA6EDECF4CF0DDCF4DF080ECAC
:100CA00008F0010E2524466E476A000E4722000E0A
:100CB000496E0A0E486ED0EC07F04650256E57EF8D
:100CC00005F01200000E956E000E3F6E020E3E6E95
:100CD000000E416E000E406E30EC04F0000E3F6ED0
:100CE000030E3E6E000E416E000E406E30EC04F0BE
:100CF000000E3F6E040E3E6E000E416E000E406E02
:100D000030EC04F0000E3F6E050E3E6E000E416E9C
:100D1000000E406E30EC04F0000E836EECEF06F037
:100D2000010E2024F66EF76A060EF7220800F5CFB2
:100D300083FF000E3F6E020E3E6E000E416E010EEE
:100D4000406E30EC04F0010E216EFFEF06F0010E54
:100D50001F24F66EF76A060EF7220800F5CF83FF10
:100D6000000E3F6E030E3E6E000E416E010E406E91
:100D700030EC04F0020E216EFFEF06F0010E1E248F
:100D8000F66EF76A060EF7220800F5CF83FF000E15
:100D90003F6E040E3E6E000E416E010E406E30EC52
:100DA00004F0030E216EFFEF06F0010E1D24F66E17
:100DB000F76A060EF7220800F5CF83FF000E3F6E9C
:100DC000050E3E6E000E416E010E406E30EC04F0DA
:100DD000000E216EFFEF06F02150000AD8B490EF0C
:100DE00006F0010AD8B4A7EF06F0030AD8B4BEEFA4
:100DF00006F0010AD8B4D5EF06F0E8EF06F01200CD
:100E00001B4A1C2A1BC046F01CC047F0000E496E4E
:100E10000A0E486ED0EC07F046C04CF047C04DF0CB
:100E2000030E3E6E4C5084EC09F0000E416E0A0E2B
:100E3000406E1BC03EF01CC03FF06EEC07F03EC0A1
:100E400046F03FC047F0000E496E0A0E486ED0ECE7
:100E500007F046C04CF047C04DF0020E3E6E4C50BD
:100E600084EC09F0000E416E640E406E1BC03EF033
:100E70001CC03FF06EEC07F03EC046F03FC047F0AC
:100E8000000E496E0A0E486ED0EC07F046C04CF0DA
:100E900047C04DF0010E3E6E4C5084EC09F0030E3D
:100EA000416EE80E406E1BC03EF01CC03FF06EEC81
:100EB00007F03EC046F03FC047F0000E496E0A0EF4
:100EC000486ED0EC07F046C04CF047C04DF0000E25
:100ED0003E6E4C5084EC09F0020E1200000E436E80
:100EE00041BE77EF07F075EF07F07DEF07F0406C3C
:100EF000411ED8B0412A010E436E3FBE84EF07F079
:100F000082EF07F08AEF07F03E6C3F1ED8B03F2A11
:100F1000010E431A000E456E000E446E4050411003
:100F2000D8B495EF07F097EF07F0BFEF07F0010E89
:100F3000426E9FEF07F0D89040364136422A41AECC
:100F4000A4EF07F0A6EF07F09BEF07F0D890443628
:100F5000453640503E5C41503F58D8A0B2EF07F0B4
:100F6000B4EF07F0B9EF07F040503E5E41503F5AF2
:100F70004480D89041324032422EA6EF07F04350D1
:100F8000D8B4C5EF07F0C7EF07F0CBEF07F0446C1C
:100F9000451ED8B0452A44C03EF045C03FF012007F
:100FA000000E4B6E47BED9EF07F0D7EF07F0DFEF2B
:100FB00007F0466C471ED8B0472A010E4B6E49BE5B
:100FC000E6EF07F0E4EF07F0EAEF07F0486C491EA0
:100FD000D8B0492A48504910D8B4F1EF07F0F3EFE0
:100FE00007F017EF08F0010E4A6EFBEF07F0D890FC
:100FF000483649364A2A49AE00EF08F002EF08F0B9
:10100000F7EF07F04850465C49504758D8A00BEF1F
:1010100008F00DEF08F011EF08F04850465E495017
:10102000475AD890493248324A2E02EF08F04B50C6
:10103000D8B41DEF08F01FEF08F023EF08F0466C5E
:10104000471ED8B0472A46C046F047C047F01200B6
:10105000000E346E30BE31EF08F02FEF08F037EF9E
:1010600008F02F6C301ED8B0302A010E346E32BE1C
:101070003EEF08F03CEF08F042EF08F0316C321E12
:10108000D8B0322A31503210D8B449EF08F04BEFC3
:1010900008F06FEF08F0010E336E53EF08F0D890B0
:1010A00031363236332A32AE58EF08F05AEF08F0B4
:1010B0004FEF08F031502F5C32503058D8A063EF1A
:1010C00008F065EF08F069EF08F031502F5E3250FC
:1010D000305AD89032323132332E5AEF08F0345031
:1010E000D8B475EF08F077EF08F07BEF08F02F6CBD
:1010F000301ED8B0302A2FC02FF030C030F0120090
:1011000025504E6E4F6A010E2424466E476A000E2B
:101110004722000E496E0A0E486ED0EC07F04E5082
:10112000461809E14F504718D8B499EF08F09BEFE3
:1011300008F0D1EF08F02450020D010EF324D96E0F
:10114000000EF420DA6E4CC0DEFF4DC0DDFF20EE55
:1011500002F04C50D9264D50DA22DECF4EF0DDCFD2
:101160004FF02450020D010EF324D96E000EF4202E
:10117000DA6E10EE04F0DE50E126DD50E2224E5031
:10118000E6264F50E522010E2424466E476A000EE3
:101190004722000E496E0A0E486ED0EC07F046500A
:1011A000246E120025C037F012EF09F03750020DFF
:1011B000010EF324D96E000EF420DA6E10EE04F066
:1011C000DE50E126DD50E222010EE3AEF3EF08F03F
:1011D000D10EE65C8A0EE658D8A0F1EF08F0F3EFE6
:1011E00008F004EF09F03750020D010EF324D96E18
:1011F000000EF420DA6E10EE04F0DE50E126DD5031
:10120000E222E606000EE55A010E37242F6E306A00
:10121000000E3022000E326E0A0E316E28EC08F0FD
:101220002F50376E24503718D8A419EF09F01BEF50
:1012300009F0D6EF08F0120020EE59F010EE80F021
:10124000070EDBCFE3FFE806FCE220EEA0F010EE95
:1012500088F0070EDBCFE3FFE806FCE220EE98F013
:1012600010EE90F0070EDBCFE3FFE806FCE215EC92
:101270000AF0B0EC09F00CEC0AF0800E4C6E000E97
:101280004D6E80EC08F0880E4C6E000E4D6E80ECBA
:1012900008F0900E4C6E000E4D6E80EC08F0D09E63
:1012A000F28AF28EF28C57EC05F007EF00F0080E90
:1012B000F66E140EF76E000EF86E00EE98F010EE5B
:1012C00010F00900F5CFEEFFE550E150FAE1220EF3
:1012D000F66E140EF76E000EF86E00EE59F010EE7A
:1012E00008F00900F5CFEEFFE550E150FAE100EE1D
:1012F00001F02E0EEE6AE806FDE161906192000EAB
:10130000F86E00011CEF09F03F6E3E50D8A48BEF41
:1013100009F08DEF09F08FEF09F03FC020F03E0497
:10132000D8A495EF09F097EF09F099EF09F03FC0C5
:101330001FF0020E3E18D8A4A0EF09F0A2EF09F0AA
:10134000A4EF09F03FC01EF0030E3E18D8A4ABEF87
:1013500009F0ADEF09F0AFEF09F03FC01DF012004A
:10136000000E3F6E020E3E6E000E416E000E406E8D
:1013700009EC03F0000E3F6E030E3E6E000E416E50
:10138000000E406E09EC03F0000E3F6E040E3E6E40
:10139000000E416E000E406E09EC03F0000E3F6E31
:1013A000050E3E6E000E416E000E406E09EC03F01D
:1013B000000E956E12000600E1CF38F0E2CF39F052
:1013C000D9CF3AF0DACF3BF0F3CF3CF0F4CF3DF099
:1013D000F2A4EDEF09F0EFEF09F0F6EF09F0B10E2E
:1013E000D76EDF0ED66ED2EC08F0F2943DC0F4FF5B
:1013F0003CC0F3FF3BC0DAFF3AC0D9FF39C0E2FF7F
:1014000038C0E1FF61921100000E64000000050089
:101410003A14010000000A00000E256E000E246E32
:1014200012003214000000000F00080ED56ED58E99
:101430001200000E956E000E120062EC06F0020E15
:02144000120098
:020000040020DA
:08000000FFFFFFFFFFFFFFFF00
:020000040030CA
:0E000000FF021100FF8380FF0FC00FE00F40D2
:00000001FF
