:0400000007EF00F016
:0A000800618205ED0AF081EF09F0B6
:10060000003F065B4F666D7D077F6F777C395E79B3
:10061000710024502518D8B410EF03F012EF03F046
:1006200009EF03F025C057F025C058F0A8EF03F0FC
:100630005750020D010EF324D96E000EF420DA6E2D
:1006400010EE04F0DE50E126DD50E2225850020D9B
:10065000010EF324D96E000EF420DA6E00EE04F0E1
:10066000DE50E926DD50EA22E650EE1807E1E650BA
:10067000EE18D8A43EEF03F040EF03F06DEF03F067
:100680005850020D010EF324D96E000EF420DA6EDC
:1006900010EE06F0DE50E126DD50E2225750020D4A
:1006A000010EF324D96E000EF420DA6E00EE06F08F
:1006B000DE50E926DD50EA22E650EE5CEE50800A7C
:1006C000546EE650800A5458D8B069EF03F06BEFCF
:1006D00003F06DEF03F058C057F05750020D010EB4
:1006E000F324D96E000EF420DA6E10EE04F0DE5022
:1006F000E126DD50E2225850020D010EF324D96E9E
:10070000000EF420DA6E00EE04F0DE50E926DD5033
:10071000EA22E650EE5CEE50800A546EE650800A03
:100720005458D8B096EF03F098EF03F09AEF03F027
:1007300058C057F0010E5824466E476A000E4722F3
:10074000000E496E0A0E486EFAEC07F04650586EDD
:1007500024505818D8A4AFEF03F0B1EF03F018EF0E
:1007600003F05750020D010EF324D96E000EF42051
:10077000DA6EDECF55F0DDCF56F02550020D010EBA
:10078000F324D96E000EF420DA6E5750020D010EDC
:10079000F324E16E000EF420E26EDECFE6FFDDCF43
:1007A000E5FF2550020D010EF324D96E000EF42052
:1007B000DA6E55C0DEFF56C0DDFF2550020D010E7A
:1007C000F324D96E000EF420DA6E10EE04F0DE5041
:1007D000E126DD50E222010EE3BEFAEF03F0010E46
:1007E000E35006E1E604D8B0F8EF03F0FAEF03F0C7
:1007F000DDEF03F02550020D010EF324D96E000E3B
:10080000F420DA6EDECF50F0DDCF51F050C0D9FFCA
:1008100051C0DAFF02D817EF04F00500FA6EDE507F
:10082000FD6EDE50FE6EF850FF6EFA501200020AA6
:10083000D8A41DEF04F01FEF04F02DEF04F02550B5
:10084000020D010EF324D96E000EF420DA6EDECF15
:100850004CF0DDCF4DF0AAEC08F0010E2524466ED9
:10086000476A000E4722000E496E0A0E486EFAECE7
:1008700007F04650256E09EF03F012003FBE4CEF23
:1008800004F03F5007E1080E3E5CD8B04AEF04F098
:100890004CEF04F076EF04F040504110D8B453EF21
:1008A00004F055EF04F065EF04F03EC042F0010E95
:1008B000436E422A5EEF04F0D8904336422E5CEF3E
:1008C00004F04350921264EF05F03EC042F0010E76
:1008D000436E422A6EEF04F0D8904336422E6CEFFE
:1008E00004F04350FF0A921664EF05F03FBE84EF18
:1008F00004F03F5007E1100E3E5CD8B082EF04F0E8
:1009000084EF04F0B2EF04F040504110D8B48BEF04
:1009100004F08DEF04F09FEF04F03EC042F0F80EBB
:100920004226010E436E422A98EF04F0D8904336D7
:10093000422E96EF04F04350931264EF05F03EC050
:1009400042F0F80E4226010E436E422AAAEF04F04E
:10095000D8904336422EA8EF04F04350FF0A931676
:1009600064EF05F03FBEC0EF04F03F5007E1180E02
:100970003E5CD8B0BEEF04F0C0EF04F0EEEF04F040
:1009800040504110D8B4C7EF04F0C9EF04F0DBEFDA
:1009900004F03EC042F0F00E4226010E436E422AA1
:1009A000D4EF04F0D8904336422ED2EF04F04350F7
:1009B000941264EF05F03EC042F0F00E4226010EA4
:1009C000436E422AE6EF04F0D8904336422EE4EF1D
:1009D00004F04350FF0A941664EF05F03FBEFCEFAD
:1009E00004F03F5007E1200E3E5CD8B0FAEF04F06F
:1009F000FCEF04F02AEF05F040504110D8B403EFAB
:100A000005F005EF05F017EF05F03EC042F0E80EE7
:100A10004226010E436E422A10EF05F0D89043366D
:100A2000422E0EEF05F04350951264EF05F03EC0E4
:100A300042F0E80E4226010E436E422A22EF05F0F4
:100A4000D8904336422E20EF05F04350FF0A95160A
:100A500064EF05F03FBE38EF05F03F5007E1280E88
:100A60003E5CD8B036EF05F038EF05F064EF05F0E6
:100A700040504110D8B43FEF05F041EF05F053EF7F
:100A800005F03EC042F0E00E4226010E436E422ABF
:100A90004CEF05F0D8904336422E4AEF05F0435014
:100AA000961264EF05F03EC042F0E00E4226010EC1
:100AB000436E422A5EEF05F0D8904336422E5CEF3B
:100AC00005F04350FF0A961612003FBE73EF05F083
:100AD0003F5007E1080E3E5CD8B071EF05F073EFB0
:100AE00005F09DEF05F040504110D8B47AEF05F0C5
:100AF0007CEF05F08CEF05F03EC042F0010E436E36
:100B0000422A85EF05F0D8904336422E83EF05F058
:100B1000435080128BEF06F03EC042F0010E436E50
:100B2000422A95EF05F0D8904336422E93EF05F018
:100B30004350FF0A80168BEF06F03FBEABEF05F087
:100B40003F5007E1100E3E5CD8B0A9EF05F0ABEFC7
:100B500005F0D9EF05F0F80E3E26FF0E3F2240507B
:100B60004110D8B4B6EF05F0B8EF05F0C8EF05F0C6
:100B70003EC042F0010E436E422AC1EF05F0D8900C
:100B80004336422EBFEF05F0435081128BEF06F043
:100B90003EC042F0010E436E422AD1EF05F0D890DC
:100BA0004336422ECFEF05F04350FF0A81168BEFFC
:100BB00006F03FBEE7EF05F03F5007E1180E3E5C40
:100BC000D8B0E5EF05F0E7EF05F015EF06F0F00E11
:100BD0003E26FF0E3F2240504110D8B4F2EF05F000
:100BE000F4EF05F004EF06F03EC042F0010E436E54
:100BF000422AFDEF05F0D8904336422EFBEF05F078
:100C0000435082128BEF06F03EC042F0010E436E5D
:100C1000422A0DEF06F0D8904336422E0BEF06F035
:100C20004350FF0A82168BEF06F03FBE23EF06F01B
:100C30003F5007E1200E3E5CD8B021EF06F023EFD5
:100C400006F051EF06F0E80E3E26FF0E3F22405020
:100C50004110D8B42EEF06F030EF06F040EF06F06A
:100C60003EC042F0010E436E422A39EF06F0D890A2
:100C70004336422E37EF06F0435083128BEF06F0D7
:100C80003EC042F0010E436E422A49EF06F0D89072
:100C90004336422E47EF06F04350FF0A83168BEF90
:100CA00006F03FBE5FEF06F03F5007E1280E3E5CC6
:100CB000D8B05DEF06F05FEF06F08BEF06F0E00EC8
:100CC0003E26FF0E3F2240504110D8B46AEF06F096
:100CD0006CEF06F07CEF06F03EC042F0010E436E72
:100CE000422A75EF06F0D8904336422E73EF06F095
:100CF000435084128BEF06F03EC042F0010E436E6B
:100D0000422A85EF06F0D8904336422E83EF06F054
:100D10004350FF0A84161200000E956E000E3F6EBF
:100D2000020E3E6E000E416E000E406E65EC05F048
:100D3000000E3F6E030E3E6E000E416E000E406EC2
:100D400065EC05F0000E3F6E040E3E6E000E416E27
:100D5000000E406E65EC05F0000E3F6E050E3E6E17
:100D6000000E416E000E406E65EC05F0000E836EC5
:100D700016EF07F0010E2024F66EF76A060EF72232
:100D80000800F5CF83FF000E3F6E020E3E6E000E90
:100D9000416E010E406E65EC05F0010E216E29EFEB
:100DA00007F0010E1F24F66EF76A060EF722080000
:100DB000F5CF83FF000E3F6E030E3E6E000E416EB8
:100DC000010E406E65EC05F0020E216E29EF07F072
:100DD000010E1E24F66EF76A060EF7220800F5CF04
:100DE00083FF000E3F6E040E3E6E000E416E010E3C
:100DF000406E65EC05F0030E216E29EF07F0010E41
:100E00001D24F66EF76A060EF7220800F5CF83FF61
:100E1000000E3F6E050E3E6E000E416E010E406EDE
:100E200065EC05F0000E216E29EF07F02150000A55
:100E3000D8B4BAEF06F0010AD8B4D1EF06F0030A2D
:100E4000D8B4E8EF06F0010AD8B4FFEF06F012EFCD
:100E500007F012001B4A1C2A1BC046F01CC047F0BA
:100E6000000E496E0A0E486EFAEC07F046C04CF0D0
:100E700047C04DF0030E3E6E4C50AEEC09F0000E34
:100E8000416E0A0E406E1BC03EF01CC03FF098EC55
:100E900007F03EC046F03FC047F0000E496E0A0E14
:100EA000486EFAEC07F046C04CF047C04DF0020E19
:100EB0003E6E4C50AEEC09F0000E416E640E406E7A
:100EC0001BC03EF01CC03FF098EC07F03EC046F05F
:100ED0003FC047F0000E496E0A0E486EFAEC07F06C
:100EE00046C04CF047C04DF0010E3E6E4C50AEEC8B
:100EF00009F0030E416EE80E406E1BC03EF01CC0B0
:100F00003FF098EC07F03EC046F03FC047F0000EBF
:100F1000496E0A0E486EFAEC07F046C04CF047C026
:100F20004DF0000E3E6E4C50AEEC09F0020E120079
:100F3000000E436E41BEA1EF07F09FEF07F0A7EF51
:100F400007F0406C411ED8B0412A010E436E3FBEEF
:100F5000AEEF07F0ACEF07F0B4EF07F03E6C3F1ECA
:100F6000D8B03F2A010E431A000E456E000E446EA3
:100F700040504110D8B4BFEF07F0C1EF07F0E9EFE0
:100F800007F0010E426EC9EF07F0D89040364136A7
:100F9000422A41AECEEF07F0D0EF07F0C5EF07F0E1
:100FA000D8904436453640503E5C41503F58D8A01A
:100FB000DCEF07F0DEEF07F0E3EF07F040503E5EB6
:100FC00041503F5A4480D89041324032422ED0EFB7
:100FD00007F04350D8B4EFEF07F0F1EF07F0F5EF6B
:100FE00007F0446C451ED8B0452A44C03EF045C0C9
:100FF0003FF01200000E4B6E47BE03EF08F001EF0A
:1010000008F009EF08F0466C471ED8B0472A010ED9
:101010004B6E49BE10EF08F00EEF08F014EF08F029
:10102000486C491ED8B0492A48504910D8B41BEF23
:1010300008F01DEF08F041EF08F0010E4A6E25EFB1
:1010400008F0D890483649364A2A49AE2AEF08F0C7
:101050002CEF08F021EF08F04850465C4950475803
:10106000D8A035EF08F037EF08F03BEF08F0485014
:10107000465E4950475AD890493248324A2E2CEFA2
:1010800008F04B50D8B447EF08F049EF08F04DEFA7
:1010900008F0466C471ED8B0472A46C046F047C005
:1010A00047F01200000E346E30BE5BEF08F059EFCF
:1010B00008F061EF08F02F6C301ED8B0302A010E16
:1010C000346E32BE68EF08F066EF08F06CEF08F09F
:1010D000316C321ED8B0322A31503210D8B473EF8E
:1010E00008F075EF08F099EF08F0010E336E7DEF10
:1010F00008F0D89031363236332A32AE82EF08F01B
:1011000084EF08F079EF08F031502F5C32503058FE
:10111000D8A08DEF08F08FEF08F093EF08F0315072
:101120002F5E3250305AD89032323132332E84EF23
:1011300008F03450D8B49FEF08F0A1EF08F0A5EF05
:1011400008F02F6C301ED8B0302A2FC02FF030C0DE
:1011500030F0120025504E6E4F6A010E2424466E68
:10116000476A000E4722000E496E0A0E486EFAECDE
:1011700007F04E50461809E14F504718D8B4C3EF56
:1011800008F0C5EF08F0FBEF08F02450020D010E47
:10119000F324D96E000EF420DA6E4CC0DEFF4DC091
:1011A000DDFF20EE02F04C50D9264D50DA22DECF82
:1011B0004EF0DDCF4FF02450020D010EF324D96E16
:1011C000000EF420DA6E10EE04F0DE50E126DD5061
:1011D000E2224E50E6264F50E522010E2424466EB0
:1011E000476A000E4722000E496E0A0E486EFAEC5E
:1011F00007F04650246E120025C037F03CEF09F08E
:101200003750020D010EF324D96E000EF420DA6E71
:1012100010EE04F0DE50E126DD50E222010EE3AED6
:101220001DEF09F0D10EE65C8A0EE658D8A01BEF40
:1012300009F01DEF09F02EEF09F03750020D010EF5
:10124000F324D96E000EF420DA6E10EE04F0DE50B6
:10125000E126DD50E222E606000EE55A010E3724B3
:101260002F6E306A000E3022000E326E0A0E316E82
:1012700052EC08F02F50376E24503718D8A443EFA3
:1012800009F045EF09F000EF09F0120020EE59F0E7
:1012900010EE80F0070EDBCFE3FFE806FCE220EE65
:1012A000A0F010EE88F0070EDBCFE3FFE806FCE2CB
:1012B00020EE98F010EE90F0070EDBCFE3FFE8068B
:1012C000FCE23FEC0AF0DAEC09F036EC0AF0800EB2
:1012D0004C6E000E4D6EAAEC08F0880E4C6E000E9F
:1012E0004D6EAAEC08F0900E4C6E000E4D6EAAECFE
:1012F00008F0D09EF28AF28EF28C09EC03F007EF30
:1013000000F05C0EF66E140EF76E000EF86E00EE36
:1013100098F010EE10F00900F5CFEEFFE550E15027
:10132000FAE1760EF66E140EF76E000EF86E00EE11
:1013300059F010EE08F00900F5CFEEFFE550E1504E
:10134000FAE100EE01F02E0EEE6AE806FDE1619092
:101350006192000EF86E000146EF09F03F6E3E50BC
:10136000D8A4B5EF09F0B7EF09F0B9EF09F03FC025
:1013700020F03E04D8A4BFEF09F0C1EF09F0C3EF9D
:1013800009F03FC01FF0020E3E18D8A4CAEF09F0C2
:10139000CCEF09F0CEEF09F03FC01EF0030E3E186F
:1013A000D8A4D5EF09F0D7EF09F0D9EF09F03FC085
:1013B0001DF01200000E3F6E020E3E6E000E416EDA
:1013C000000E406E3EEC04F0000E3F6E030E3E6ECB
:1013D000000E416E000E406E3EEC04F0000E3F6EBB
:1013E000040E3E6E000E416E000E406E3EEC04F0A8
:1013F000000E3F6E050E3E6E000E416E000E406EFA
:101400003EEC04F0000E956E12000600E1CF38F0BD
:10141000E2CF39F0D9CF3AF0DACF3BF0F3CF3CF05E
:10142000F4CF3DF0F2A417EF0AF019EF0AF020EF25
:101430000AF0B10ED76EDF0ED66EFCEC08F0F29417
:101440003DC0F4FF3CC0F3FF3BC0DAFF3AC0D9FF18
:1014500039C0E2FF38C0E1FF61921100540E640010
:1014600000000A008E14010000000500000E256E29
:10147000000E246E12008614000000000F00080EFB
:10148000D56ED58E1200000E956E000E12008CECFB
:0614900006F0020E12003E
:020000040020DA
:08000000FFFFFFFFFFFFFFFF00
:020000040030CA
:0E000000FF021100FF8380FF0FC00FE00F40D2
:00000001FF
